:100000000C945D000C9485000C9485000C94850084
:100010000C9485000C9485000C9485000C9485004C
:100020000C9485000C9485000C9485000C9485003C
:100030000C9485000C9485000C9485000C9485002C
:100040000C9487040C9485000C94F7040C94D10450
:100050000C9485000C9485000C9485000C9485000C
:100060000C9485000C94850000000008000201003B
:100070000003040700000000000000000000000072
:10008000250028002B0000000000240027002A0083
:10009000040404040404040402020202020203032E
:1000A0000303030301020408102040800102040836
:1000B0001020010204081020290511241FBECFEFD3
:1000C000D8E0DEBFCDBF22E0ACE5B1E001C01D92BB
:1000D000AD31B207E1F711E0A0E0B1E0ECE2F8E108
:1000E00002C005900D92AC35B107D9F710E0CDE50F
:1000F000D0E004C02197FE010E941C0ACC35D10734
:10010000C9F70E947F050C94140C0C94000090E039
:10011000FC01EC55FF4F249180579F4FFC018491C7
:10012000882399F090E0880F991FFC01EA57FF4F50
:10013000A591B491FC01E458FF4F859194918FB73C
:10014000F894EC91E22BEC938FBF089580910F020D
:100150008E3008F08E508770806480937C00809190
:100160007A00806480937A0080917A0086FDFCCFCB
:100170008091780060917900762F682F072E000C0F
:10018000880B990B0E94DF0720E030E040EA50E442
:100190000E943E0820E030E040E85AE30E943E081A
:1001A00027EC3BE447EF5EE30E944D0920E030E09E
:1001B00048EC53E40E943E080E94BA09072E000C46
:1001C000880B990B0E94DF070895AF92BF92CF92E0
:1001D000DF92EF92FF920F931F93CF93DF936C0107
:1001E0007B018B01040F151FEB015E01AE18BF08E8
:1001F000C017D10759F06991D601ED91FC9101909A
:10020000F081E02DC6010995892B79F7C501DF91B1
:10021000CF911F910F91FF90EF90DF90CF90BF9003
:10022000AF900895FC01538D448D252F30E0842F2D
:1002300090E0821B930B541710F0CF96089501970E
:100240000895FC01918D828D981761F0A28DAE0FFB
:10025000BF2FB11D5D968C91928D9F5F9F73928F82
:1002600090E008958FEF9FEF0895FC01918D828DAE
:10027000981731F0828DE80FF11D858D90E008957B
:100280008FEF9FEF08952FB7F894809165019091BB
:100290006601A0916701B09168012FBF8093710141
:1002A00090937201A0937301B093740189E691E079
:1002B0000E94350197FF26C02FB7F8948091650101
:1002C00090916601A0916701B09168012FBF4091A4
:1002D0007101509172016091730170917401841BDE
:1002E000950BA60BB70B40916D0150916E0160917B
:1002F0006F017091700184179507A607B707B0F2D8
:100300008FEF9FEF0895FC01918D228D892F90E052
:10031000805C9F4F821B91098F739927089589E60E
:1003200091E00E94830121E0892B09F420E0822FD3
:10033000089580E090E0892B29F00E948F018111BF
:100340000C9400000895FC01A48DA80FB92FB11DD5
:10035000A35ABF4F2C91848D90E001968F739927FB
:10036000848FA689B7892C93A089B1898C918370D9
:1003700080648C93938D848D981306C00288F389D2
:10038000E02D80818F7D80830895EF92FF920F93FF
:100390001F93CF93DF93EC0181E0888F9B8D8C8D31
:1003A00098131AC0E889F989808185FF15C09FB725
:1003B000F894EE89FF896083E889F98980818370E8
:1003C000806480839FBF81E090E0DF91CF911F9197
:1003D0000F91FF90EF900895F62E0B8D10E00F5FB8
:1003E0001F4F0F731127E02E8C8D8E110CC00FB68E
:1003F00007FCFACFE889F989808185FFF5CFCE0126
:100400000E94A301F1CFEB8DEC0FFD2FF11DE35AFC
:10041000FF4FF0829FB7F8940B8FEA89FB898081A8
:100420008062CFCFCF93DF93EC01888D8823B9F022
:10043000AA89BB89E889F9898C9185FD03C08081EF
:1004400086FD0DC00FB607FCF7CF8C9185FFF2CF6C
:10045000808185FFEDCFCE010E94A301E9CFDF911E
:10046000CF91089590E0FC01E859FF4F2491FC01E1
:10047000EC55FF4F3491FC01E057FF4FE491EE2320
:10048000C9F0222339F0233001F1A8F4213019F109
:10049000223029F1F0E0EE0FFF1FE458FF4FA59145
:1004A000B4918FB7F894EC91611126C030953E233A
:1004B0003C938FBF08952730A9F02830C9F024302D
:1004C00049F7809180008F7D03C0809180008F77F5
:1004D00080938000DFCF84B58F7784BDDBCF84B578
:1004E0008F7DFBCF8091B0008F778093B000D2CF0B
:1004F0008091B0008F7DF9CF3E2BDACF813091050E
:1005000051F461E0809109020E94320260E0809122
:100510000B020C94320261E08230910519F0892BB4
:1005200049F460E080910B020E94320260E0809109
:100530000902EFCF08951F93CF93DF93182FEB019C
:100540000E948700209739F460E0812FDF91CF91DE
:100550001F910C943202CF3FD10511F461E0F5CF29
:10056000E12FF0E0E859FF4FE491E33031F140F43E
:10057000E130B1F0E230E1F0C038D1057CF7E4CFF2
:10058000E73029F1E83059F1E430B1F7809180008B
:10059000806280938000D0938B00C0938A0004C057
:1005A00084B5806884BDC7BDDF91CF911F91089548
:1005B00084B5806284BDC8BDF7CF8091800080681B
:1005C00080938000D0938900C0938800EDCF809104
:1005D000B00080688093B000C093B300E5CF8091F5
:1005E000B00080628093B000C093B400DDCFCF93A1
:1005F000DF93C1E1D2E060E08A810E94320260E0D4
:1006000088810E94320270E060E08C81DF91CF919E
:100610000C949B02FC0101900020E9F73197AF0197
:10062000481B590BBC0189E691E00C94E5008F92C0
:100630009F92AF92BF920F931F93CF93DF93CDB74B
:10064000DEB7A1970FB6F894DEBF0FBECDBF19A2DB
:10065000423008F44AE08E010F5D1F4F842E912C2A
:10066000B12CA12CA50194010E94FA09E62FB90131
:10067000CA01EA30F4F4E05DD801EE938D01232B3A
:10068000242B252B79F790E080E0109719F0CD010D
:100690000E940A03A1960FB6F894DEBF0FBECDBF2D
:1006A000DF91CF911F910F91BF90AF909F908F904E
:1006B0000895E95CE1CFFC0180819181009711F000
:1006C0000C94BE0A0895EF92FF920F931F93CF935D
:1006D000DF93EC017B01198218821B821A821D8232
:1006E0001C82FB0101900020E9F731978F01061B66
:1006F000170BB8016F5F7F4F90E080E00E94470BBF
:100700000097B9F0998388831B830A832C813D81EC
:10071000232B11F4FC0110821D830C83B701888107
:100720009981DF91CF911F910F91FF90EF900C94E1
:100730000D0C88819981009711F00E94BE0A1982E0
:1007400018821D821C821B821A82DF91CF911F9119
:100750000F91FF90EF9008958F929F92AF92BF926A
:10076000CF92DF92EF92FF92CF93DF935C016A0109
:100770007B01E9018AE191E00E940A0388E191E0AE
:100780000E940A03F501448155816081718189E6E7
:1007900091E00E94E5008BE191E00E940A03A7012D
:1007A0009601C701B6010E94F5098823F1F08FE197
:1007B00091E00E940A034C815D816881798189E61C
:1007C00091E00E94E5008AE191E00E940A0388E13D
:1007D00091E0DF91CF91FF90EF90DF90CF90BF90AD
:1007E000AF909F908F900C940A0346015701E894B4
:1007F000B7F82FEF3FEF4FE75FE7C501B4010E9465
:10080000F50981110DC02FEF3FEF4FE75FE7C501FD
:10081000B4010E94D80718161CF483E291E0C9CFF6
:100820002FEF3FEF4FE75FE4C701B6010E94F009E9
:1008300018161CF487E291E0BCCF2FEF3FEF4FE793
:100840005FECC701B6010E94D80787FDF3CF20E017
:1008500030E0A901C701B6010E94D80787FF09C08F
:100860006DE289E691E00E94C501F7FAF094F7F88D
:10087000F0942AE037ED43EA5BE3C701B6010E943A
:100880004E094B015C010E94C1096B017C010E9471
:10089000DD079B01AC01C501B4010E944D094B016C
:1008A0005C014AE0C701B6010E9417036EE289E6C7
:1008B00091E00E94C50120E030E040E251E4C50132
:1008C000B4010E943E084B015C010E94C1096B010A
:1008D000F12CE12C4AE0C701B6010E941703C701C1
:1008E000B6010E94DD079B01AC01C501B4010E9465
:1008F0004D0920E030E040E251E40E943E080E94B1
:10090000C10990E080E04AE00E94170354CF1F9293
:100910000F920FB60F9211242F933F938F939F93B3
:10092000AF93BF938091650190916601A09167019B
:10093000B09168013091640123E0230F2D3758F501
:100940000196A11DB11D20936401809365019093D0
:100950006601A0936701B093680180916001909156
:100960006101A0916201B09163010196A11DB11DC9
:100970008093600190936101A0936201B093630141
:10098000BF91AF919F918F913F912F910F900FBE8B
:100990000F901F90189526E8230F0296A11DB11DF8
:1009A000D2CF1F920F920FB60F9211242F933F9325
:1009B0004F935F936F937F938F939F93AF93BF9367
:1009C000EF93FF9389E691E00E94A301FF91EF91DD
:1009D000BF91AF919F918F917F916F915F914F9157
:1009E0003F912F910F900FBE0F901F9018951F925F
:1009F0000F920FB60F9211242F938F939F93EF9323
:100A0000FF93E0917901F0917A018081E0917F017B
:100A1000F091800182FD1BC09081809182018F5FE7
:100A20008F7320918301821741F0E0918201F0E001
:100A3000E759FE4F958F80938201FF91EF919F912F
:100A40008F912F910F900FBE0F901F90189580815E
:100A5000F4CFE9E6F1E01382128288EE93E0A0E0A1
:100A6000B0E084839583A683B7838AE091E0918385
:100A7000808385EC90E09587848784EC90E097876D
:100A8000868780EC90E0918B808B81EC90E0938B5B
:100A9000828B82EC90E0958B848B86EC90E0978B38
:100AA000868B118E128E138E148EE1E1F2E087E0B8
:100AB00090E09183808388E090E0938382838AE052
:100AC00090E09583848384E690E09783868381E039
:100AD00090E09093100280930F02E6E0F2E0108223
:100AE0001282118284E090E09483838385E090E019
:100AF0009683858386E090E0908787830895CF93DF
:100B0000DF93CDB7DEB72C970FB6F894DEBF0FBEDC
:100B1000CDBF789484B5826084BD84B5816084BD86
:100B200085B5826085BD85B5816085BD80916E008B
:100B3000816080936E0010928100809181008260BC
:100B400080938100809181008160809381008091F9
:100B500080008160809380008091B10084608093E8
:100B6000B1008091B00081608093B00080917A00E4
:100B7000846080937A0080917A00826080937A000A
:100B800080917A00816080937A0080917A008068F9
:100B900080937A001092C100E0917901F0917A017E
:100BA00082E08083E0917501F09176011082E091FE
:100BB0007701F09178018FEC808310928101E091B0
:100BC0007D01F0917E0186E08083E0917B01F091D0
:100BD0007C01808180618083E0917B01F0917C01C8
:100BE000808188608083E0917B01F0917C0180812D
:100BF00080688083E0917B01F0917C0180818F7D12
:100C000080838DE00E9487008DE00E9487008AE04B
:100C10000E94870087E090E0909312028093110277
:100C200088E090E090931402809313028AE090E0B1
:100C3000909316028093150284E690E09093180238
:100C40008093170281E090E09093100280930F024E
:100C500010920602109208021092070284E090E0BF
:100C600090930A028093090285E090E090930C0231
:100C700080930B0286E090E090930E0280930D0229
:100C800061E00E94320290E0292E90E0392E81E04E
:100C900090E00E947E0289E691E00E948301892B08
:100CA00009F43DC182E090E00E947E020E9443016F
:100CB000FC0197FDFFC08D32910509F04CC0412C1D
:100CC000512C80E8682E8FE3782EC12CD12C760130
:100CD00010E000E0E130F10559F1ED32F10509F4E1
:100CE00047C0EE32F10509F445C0CF01C0970A971D
:100CF000F8F4AAE0B0E0A70196010E94FC086F0199
:100D0000FF0FEE08FF08C60ED71EE81EF91E80E38F
:100D1000C81AD108E108F108112351F02DEC3CEC80
:100D20004CEC5DE3C301B2010E943E082B013C0183
:100D300089E691E00E9421010E944301FC01C097D5
:100D40000A9740F2EE32F105B9F4112319F2102F8F
:100D5000011118C027C0C0970A9708F4B0CFEE322F
:100D6000F10509F4ACCF89E691E00E9421019ECF04
:100D700001E0DECF11E0DCCFE130F10509F4AACFCC
:100D8000002341F0F094E094D094C094C11CD11C95
:100D9000E11CF11CC701B6010E94DF074B015C0199
:100DA000112351F0C701B6010E94DF07A301920190
:100DB0000E943E084B015C0180925C0190925D01B3
:100DC000A0925E01B0925F016BE271E0CE010796E6
:100DD0000E9463036FE271E0CE0101960E946303FB
:100DE0009E01295F3F4FB501A401CE0101960E94EB
:100DF000AC03CE0101960E945B03CE0107960E94D0
:100E00005B0340905C0150905D0160905E017090CA
:100E10005F0120E030E040E85FE3C301B2010E94DF
:100E20004D096B017C0120E030E040E85FE3C30145
:100E3000B2010E944E092B013C010E94A6009B01B9
:100E4000AC01C701B6010E94F0091816BCF50E945A
:100E5000A6009B01AC01C701B6010E94F00918165B
:100E60000CF469C06BE271E0CE0107960E94630347
:100E70000E94A6004B015C0164E571E0CE01019681
:100E80000E9463039E01295F3F4FB501A401CE017B
:100E900001960E94AC03CE0101960E945B03CE0135
:100EA00007960E945B0361E0809111020E9432026A
:100EB00060E068C0812C912C54017ECF0E94A60076
:100EC0009B01AC01C301B2010E94D80787FDBFCFCF
:100ED00082E090E00E947E020E94F7026BE271E0E5
:100EE000CE0107960E9463030E94A6006B017C015D
:100EF0006EE371E0CE0101960E9463039E01295FBB
:100F00003F4FB701A601CE0101960E94AC03CE016E
:100F100001960E945B03CE0107960E945B03211499
:100F2000310409F4B4CE0E948F01882309F4AFCEB6
:100F30000E940000ACCE6BE271E0CE0107960E94E9
:100F400063030E94A6004B015C0164E571E0CE01E1
:100F500001960E9463039E01295F3F4FB501A401E2
:100F6000CE0101960E94AC03CE0101960E945B0364
:100F7000CE0107960E945B0360E0809111020E94FF
:100F8000320261E0809113020E94320260911702E6
:100F900070911802809115020E949B0289E691E0EF
:100FA0000E948301892B09F448CF0E94F70290CF59
:100FB0000E941A0808F481E00895E89409C097FB9C
:100FC0003EF490958095709561957F4F8F4F9F4F20
:100FD0009923A9F0F92F96E9BB279395F695879564
:100FE00077956795B795F111F8CFFAF4BB0F11F427
:100FF00060FF1BC06F5F7F4F8F4F9F4F16C08823CE
:1010000011F096E911C0772321F09EE8872F762F03
:1010100005C0662371F096E8862F70E060E02AF044
:101020009A95660F771F881FDAF7880F9695879530
:1010300097F90895990F0008550FAA0BE0E8FEEF05
:1010400016161706E807F907C0F012161306E4078C
:10105000F50798F0621B730B840B950B39F40A2685
:1010600061F0232B242B252B21F408950A2609F463
:10107000A140A6958FEF811D811D08950E94510802
:101080000C94C2080E94B40838F00E94BB0820F0FB
:10109000952311F00C94AB080C94B10811240C9416
:1010A000F6080E94D30870F3959FC1F3950F50E0A6
:1010B000551F629FF001729FBB27F00DB11D639F0A
:1010C000AA27F00DB11DAA1F649F6627B00DA11DB0
:1010D000661F829F2227B00DA11D621F739FB00D56
:1010E000A11D621F839FA00D611D221F749F3327C6
:1010F000A00D611D231F849F600D211D822F762F5F
:101100006A2F11249F5750409AF0F1F088234AF03B
:10111000EE0FFF1FBB1F661F771F881F91505040A7
:10112000A9F79E3F510580F00C94AB080C94F6088B
:101130005F3FE4F3983ED4F3869577956795B7952E
:10114000F795E7959F5FC1F7FE2B880F911D969548
:10115000879597F9089597F99F6780E870E060E0B8
:1011600008959FEF80EC089500240A941616170640
:1011700018060906089500240A9412161306140688
:1011800005060895092E0394000C11F4882352F0EB
:10119000BB0F40F4BF2B11F460FF04C06F5F7F4FA3
:1011A0008F4F9F4F089557FD9058440F551F59F08A
:1011B0005F3F71F04795880F97FB991F61F09F3F44
:1011C00079F087950895121613061406551FF2CF6D
:1011D0004695F1DF08C0161617061806991FF1CFBD
:1011E00086957105610508940895E894BB276627E4
:1011F0007727CB0197F908950E943E09A59F900D8E
:10120000B49F900DA49F800D911D112408952F92DD
:101210003F924F925F926F927F928F929F92AF9286
:10122000BF92CF92DF92EF92FF920F931F93CF93D3
:10123000DF93CDB7DEB7CA1BDB0B0FB6F894DEBF6A
:101240000FBECDBF09942A88398848885F846E8490
:101250007D848C849B84AA84B984C884DF80EE80DA
:10126000FD800C811B81AA81B981CE0FD11D0FB6E3
:10127000F894DEBF0FBECDBFED010895A29FB0016F
:10128000B39FC001A39F700D811D1124911DB29FBA
:10129000700D811D1124911D08955058BB27AA2758
:1012A0000E9465090C94C2080E94B40838F00E949C
:1012B000BB0820F039F49F3F19F426F40C94B108D0
:1012C0000EF4E095E7FB0C94AB08E92F0E94D308DD
:1012D00058F3BA17620773078407950720F079F46B
:1012E000A6F50C94F5080EF4E0950B2EBA2FA02D60
:1012F0000B01B90190010C01CA01A0011124FF27C3
:10130000591B99F0593F50F4503E68F11A16F040BD
:10131000A22F232F342F4427585FF3CF46953795BC
:101320002795A795F0405395C9F77EF41F16BA0B81
:10133000620B730B840BBAF09150A1F0FF0FBB1F2F
:10134000661F771F881FC2F70EC0BA0F621F731F78
:10135000841F48F4879577956795B795F7959E3FD5
:1013600008F0B0CF9395880F08F09927EE0F979566
:10137000879508950E94C1096894B1110C94F608EC
:1013800008950E94DB0888F09F5798F0B92F99279D
:10139000B751B0F0E1F0660F771F881F991F1AF060
:1013A000BA95C9F714C0B13091F00E94F508B1E0C8
:1013B00008950C94F508672F782F8827B85F39F0C7
:1013C000B93FCCF3869577956795B395D9F73EF4F9
:1013D00090958095709561957F4F8F4F9F4F0895A1
:1013E0000E941A0808F48FEF08950E941A08880BCB
:1013F000990B0895A1E21A2EAA1BBB1BFD010DC07B
:10140000AA1FBB1FEE1FFF1FA217B307E407F507B4
:1014100020F0A21BB30BE40BF50B661F771F881F90
:10142000991F1A9469F760957095809590959B0126
:10143000AC01BD01CF010895EE0FFF1F0590F4919F
:10144000E02D09940F931F93CF93DF938230910582
:1014500010F482E090E0E0911B02F0911C0230E079
:1014600020E0B0E0A0E0309799F42115310509F4AF
:101470004AC0281B390B24303105D8F58A819B815D
:101480006115710589F1FB0193838283FE0111C00F
:10149000408151810281138148175907E0F04817B4
:1014A000590799F4109761F012960C9312971396BE
:1014B0001C933296CF01DF91CF911F910F91089528
:1014C00000931B0210931C02F4CF2115310551F03B
:1014D0004217530738F0A901DB019A01BD01DF0172
:1014E000F801C1CFEF01F9CF90931C0280931B024A
:1014F000CDCFFE01E20FF31F81939193225031096A
:1015000039832883D7CF2091190230911A02232BD7
:1015100041F4209102013091030130931A0220938B
:10152000190220910001309101012115310541F48A
:101530002DB73EB74091040150910501241B350B96
:10154000E0911902F0911A02E217F307A0F42E1BA2
:101550003F0B2817390778F0AC014E5F5F4F241717
:10156000350748F04E0F5F1F50931A02409319023F
:10157000819391939FCFF0E0E0E09CCFCF93DF93F6
:101580000097E9F0FC01329713821282A0911B02AE
:10159000B0911C02ED0130E020E01097A1F4208111
:1015A0003181820F931F2091190230911A0228175E
:1015B000390709F061C0F0931A02E0931902DF9134
:1015C000CF910895EA01CE17DF07E8F54A815B81E4
:1015D0009E0141155105B1F7E901FB83EA83499169
:1015E0005991C40FD51FEC17FD0761F480819181DB
:1015F0000296840F951FE9019983888382819381E4
:101600009B838A83F0E0E0E012968D919C91139782
:101610000097B9F52D913C911197CD010296820F5B
:10162000931F2091190230911A022817390739F6B1
:10163000309751F510921C0210921B02B0931A02BF
:10164000A0931902BCCFD383C28340815181840F00
:10165000951FC817D90761F44E5F5F4F8881998144
:10166000480F591F518340838A819B8193838283D2
:101670002115310509F0B0CFF0931C02E0931B0255
:101680009ECFFD01DC01C0CF13821282D7CFB0E024
:10169000A0E0EDE4FBE00C9409098C01009751F403
:1016A000CB010E94220A8C01C801CDB7DEB7E0E170
:1016B0000C942509FC01E60FF71F9C01225031090B
:1016C000E217F30708F49DC0D901CD91DC91119781
:1016D000C617D70798F0C530D10530F3CE0104976F
:1016E0008617970708F3C61BD70B2297C193D19390
:1016F0006D937C93CF010E94BE0AD6CF5B01AC1ADA
:10170000BD0A4C018C0E9D1EA0911B02B0911C02C3
:10171000512C412CF12CE12C109731F580911902BC
:1017200090911A028815990509F05CC04616570673
:1017300008F058C08091000190910101009741F498
:101740008DB79EB74091040150910501841B950B04
:10175000E817F90708F055C0F0931A02E093190250
:10176000F90171836083A0CF8D919C91119712969E
:101770006C90129713967C901397A815B90559F59C
:101780006C0142E0C40ED11CCA14DB0420F1AC0190
:101790004A195B09DA011296159780F0628273820A
:1017A00051834083D9016D937C93E114F10471F06E
:1017B000D7011396FC93EE93129776CF22968C0F57
:1017C0009D1FF90191838083F301EFCFF0931C02F9
:1017D000E0931B0269CF4816590608F42C017D01DD
:1017E000D3019ACFCB010E94220A7C01009749F0D5
:1017F000AE01B8010E94040CC8010E94BE0A870114
:1018000053CF10E000E050CFFB01DC0102C001909B
:101810000D9241505040D8F70895FB01DC01019032
:0C1820000D920020E1F70895F894FFCF2E
:10182C0000001D02800000000000C501E50012014F
:10183C0012028301210135010D0A00202D20006EBA
:10184C00616E00696E66006F7666006B50610074A5
:10185C00617267657420707265737572650072656C
:10186C00646572696E6720636F6D706C6574656416
:0C187C00202121207072657375726500D8
:107E0000112484B714BE81FFF0D085E080938100F7
:107E100082E08093C00088E18093C10086E0809377
:107E2000C20080E18093C4008EE0C9D0259A86E02C
:107E300020E33CEF91E0309385002093840096BBD3
:107E4000B09BFECF1D9AA8958150A9F7CC24DD24C4
:107E500088248394B5E0AB2EA1E19A2EF3E0BF2EE7
:107E6000A2D0813461F49FD0082FAFD0023811F036
:107E7000013811F484E001C083E08DD089C08234E0
:107E800011F484E103C0853419F485E0A6D080C0E4
:107E9000853579F488D0E82EFF2485D0082F10E0AE
:107EA000102F00270E291F29000F111F8ED06801E7
:107EB0006FC0863521F484E090D080E0DECF843638
:107EC00009F040C070D06FD0082F6DD080E0C81688
:107ED00080E7D80618F4F601B7BEE895C0E0D1E017
:107EE00062D089930C17E1F7F0E0CF16F0E7DF06D8
:107EF00018F0F601B7BEE89568D007B600FCFDCFD4
:107F0000A601A0E0B1E02C9130E011968C91119780
:107F100090E0982F8827822B932B1296FA010C0160
:107F200087BEE89511244E5F5F4FF1E0A038BF0790
:107F300051F7F601A7BEE89507B600FCFDCF97BE46
:107F4000E89526C08437B1F42ED02DD0F82E2BD052
:107F50003CD0F601EF2C8F010F5F1F4F84911BD097
:107F6000EA94F801C1F70894C11CD11CFA94CF0C13
:107F7000D11C0EC0853739F428D08EE10CD085E9AC
:107F80000AD08FE07ACF813511F488E018D01DD067
:107F900080E101D065CF982F8091C00085FFFCCF94
:107FA0009093C60008958091C00087FFFCCF809118
:107FB000C00084FD01C0A8958091C6000895E0E648
:107FC000F0E098E1908380830895EDDF803219F02E
:107FD00088E0F5DFFFCF84E1DECF1F93182FE3DFCA
:107FE0001150E9F7F2DF1F91089580E0E8DFEE27F6
:047FF000FF270994CA
:027FFE00040479
:0400000300007E007B
:00000001FF
