:100000000C945D000C9485000C9485000C94850084
:100010000C9485000C9485000C9485000C9485004C
:100020000C9485000C9485000C9485000C9485003C
:100030000C9485000C9485000C9485000C9485002C
:100040000C9491040C9485000C9401050C94DB0431
:100050000C9485000C9485000C9485000C9485000C
:100060000C9485000C94850000000008000201003B
:100070000003040700000000000000000000000072
:10008000250028002B0000000000240027002A0083
:10009000040404040404040402020202020203032E
:1000A0000303030301020408102040800102040836
:1000B0001020010204081020330511241FBECFEFC9
:1000C000D8E0DEBFCDBF22E0A2E0B2E001C01D92C9
:1000D000A33CB207E1F712E0A0E0B1E0E4E9F9E106
:1000E00002C005900D92A230B107D9F710E0CDE51E
:1000F000D0E004C02197FE010E94D00ACC35D10780
:10010000C9F70E9489050C94C80C0C94000090E07B
:10011000FC01EC55FF4F249180579F4FFC018491C7
:10012000882399F090E0880F991FFC01EA57FF4F50
:10013000A591B491FC01E458FF4F859194918FB73C
:10014000F894EC91E22BEC938FBF08958091B50267
:100150008E3008F08E508770806480937C00809190
:100160007A00806480937A0080917A0086FDFCCFCB
:100170008091780060917900762F682F072E000C0F
:10018000880B990B0E94930820E030E040EA50E48D
:100190000E94F20820E030E040E85AE30E94F208B2
:1001A00027EC3BE447EF5EE30E94010A20E030E0E9
:1001B00048EC53E40E94F2080E946E0A072E000CDD
:1001C000880B990B0E9493080895AF92BF92CF922B
:1001D000DF92EF92FF920F931F93CF93DF936C0107
:1001E0007B018B01040F151FEB015E01AE18BF08E8
:1001F000C017D10759F06991D601ED91FC9101909A
:10020000F081E02DC6010995892B79F7C501DF91B1
:10021000CF911F910F91FF90EF90DF90CF90BF9003
:10022000AF900895FC01538D448D252F30E0842F2D
:1002300090E0821B930B541710F0CF96089501970E
:100240000895FC01918D828D981761F0A28DAE0FFB
:10025000BF2FB11D5D968C91928D9F5F9F73928F82
:1002600090E008958FEF9FEF0895FC01918D828DAE
:10027000981731F0828DE80FF11D858D90E008957B
:100280008FEF9FEF08952FB7F89480910B02909114
:100290000C02A0910D02B0910E022FBF80931702A5
:1002A00090931802A0931902B0931A028FE092E083
:1002B0000E94350197FF26C02FB7F89480910B025A
:1002C00090910C02A0910D02B0910E022FBF4091AF
:1002D0001702509118026091190270911A02841B42
:1002E000950BA60BB70B409113025091140260912D
:1002F00015027091160284179507A607B707B0F28A
:100300008FEF9FEF0895FC01918D228D892F90E052
:10031000805C9F4F821B91098F73992708958FE00E
:1003200092E00E94830121E0892B09F420E0822FD2
:10033000089580E090E0892B29F00E948F018111BF
:100340000C9400000895FC01A48DA80FB92FB11DD5
:10035000A35ABF4F2C91848D90E001968F739927FB
:10036000848FA689B7892C93A089B1898C918370D9
:1003700080648C93938D848D981306C00288F389D2
:10038000E02D80818F7D80830895EF92FF920F93FF
:100390001F93CF93DF93EC0181E0888F9B8D8C8D31
:1003A00098131AC0E889F989808185FF15C09FB725
:1003B000F894EE89FF896083E889F98980818370E8
:1003C000806480839FBF81E090E0DF91CF911F9197
:1003D0000F91FF90EF900895F62E0B8D10E00F5FB8
:1003E0001F4F0F731127E02E8C8D8E110CC00FB68E
:1003F00007FCFACFE889F989808185FFF5CFCE0126
:100400000E94A301F1CFEB8DEC0FFD2FF11DE35AFC
:10041000FF4FF0829FB7F8940B8FEA89FB898081A8
:100420008062CFCFCF93DF93EC01888D8823B9F022
:10043000AA89BB89E889F9898C9185FD03C08081EF
:1004400086FD0DC00FB607FCF7CF8C9185FFF2CF6C
:10045000808185FFEDCFCE010E94A301E9CFDF911E
:10046000CF91089590E0FC01E859FF4F2491FC01E1
:10047000EC55FF4F3491FC01E057FF4FE491EE2320
:10048000C9F0222339F0233001F1A8F4213019F109
:10049000223029F1F0E0EE0FFF1FE458FF4FA59145
:1004A000B4918FB7F894EC91611126C030953E233A
:1004B0003C938FBF08952730A9F02830C9F024302D
:1004C00049F7809180008F7D03C0809180008F77F5
:1004D00080938000DFCF84B58F7784BDDBCF84B578
:1004E0008F7DFBCF8091B0008F778093B000D2CF0B
:1004F0008091B0008F7DF9CF3E2BDACF813091050E
:1005000051F461E08091AF020E94320260E080917C
:10051000B1020C94320261E08230910519F0892B0E
:1005200049F460E08091B1020E94320260E0809163
:10053000AF02EFCF08951F93CF93DF93182FEB01F6
:100540000E948700209739F460E0812FDF91CF91DE
:100550001F910C943202CF3FD10511F461E0F5CF29
:10056000E12FF0E0E859FF4FE491E33031F140F43E
:10057000E130B1F0E230E1F0C038D1057CF7E4CFF2
:10058000E73029F1E83059F1E430B1F7809180008B
:10059000806280938000D0938B00C0938A0004C057
:1005A00084B5806884BDC7BDDF91CF911F91089548
:1005B00084B5806284BDC8BDF7CF8091800080681B
:1005C00080938000D0938900C0938800EDCF809104
:1005D000B00080688093B000C093B300E5CF8091F5
:1005E000B00080628093B000C093B400DDCFFC0106
:1005F00001900020E9F73197AF01481B590BBC016E
:100600008FE092E00C94E5008F929F92AF92BF92A0
:100610000F931F93CF93DF93CDB7DEB7A1970FB69C
:10062000F894DEBF0FBECDBF19A2423008F44AE0F5
:100630008E010F5D1F4F842E912CB12CA12CA50192
:1006400094010E94AE0AE62FB901CA01EA30F4F41F
:10065000E05DD801EE938D01232B242B252B79F718
:1006600090E080E0109719F0CD010E94F702A1966A
:100670000FB6F894DEBF0FBECDBFDF91CF911F91B3
:100680000F91BF90AF909F908F900895E95CE1CF5C
:10069000CF93DF930E94F702EC0188E191E00E9482
:1006A000F7028C0F9D1FDF91CF910895CF93DF93B9
:1006B000C7EBD2E060E08A810E94320260E088816C
:1006C0000E94320270E060E08C810E949B028BE10C
:1006D00091E0DF91CF910C944803FC0180819181DE
:1006E000009711F00C94720B0895EF92FF920F9304
:1006F0001F93CF93DF93EC017B01198218821B8239
:100700001A821D821C82FB0101900020E9F73197BB
:100710008F01061B170BB8016F5F7F4F90E080E0E1
:100720000E94FB0B0097B9F0998388831B830A838F
:100730002C813D81232B11F4FC0110821D830C833D
:10074000B70188819981DF91CF911F910F91FF901F
:10075000EF900C94C10C88819981009711F00E9450
:10076000720B198218821D821C821B821A82DF91F1
:10077000CF911F910F91FF90EF9008958F929F92CC
:10078000AF92BF92CF92DF92EF92FF92CF93DF931F
:100790005C016A017B01E9018AE191E00E94480362
:1007A000F50144815581608171818FE092E00E9462
:1007B000E5008AE291E00E94F702A7019601C701D5
:1007C000B6010E94A90A8823D1F08EE291E00E942E
:1007D000F7024C815D81688179818FE092E00E940F
:1007E000E5008AE191E0DF91CF91FF90EF90DF90FB
:1007F000CF90BF90AF909F908F900C94480346018C
:100800005701E894B7F82FEF3FEF4FE75FE7C501D7
:10081000B4010E94A90A81110DC02FEF3FEF4FE7ED
:100820005FE7C501B4010E948C0818161CF482E32E
:1008300091E0CDCF2FEF3FEF4FE75FE4C701B60167
:100840000E94A40A18161CF486E391E0C0CF2FEF93
:100850003FEF4FE75FECC701B6010E948C0887FDB0
:10086000F3CF20E030E0A901C701B6010E948C0857
:1008700087FF09C06DE28FE092E00E94C501F7FAA0
:10088000F094F7F8F0942AE037ED43EA5BE3C70110
:10089000B6010E94020A4B015C010E94750A6B01BD
:1008A0007C010E9491089B01AC01C501B4010E942A
:1008B000010A4B015C014AE0C701B6010E94040332
:1008C0006EE28FE092E00E94C50120E030E040E25D
:1008D00051E4C501B4010E94F2084B015C010E9481
:1008E000750A6B01F12CE12C4AE0C701B6010E94A8
:1008F0000403C701B6010E9491089B01AC01C50128
:10090000B4010E94010A20E030E040E251E40E947C
:10091000F2080E94750A90E080E04AE00E94040319
:1009200058CF1F920F920FB60F9211242F933F931F
:100930008F939F93AF93BF9380910B0290910C0282
:10094000A0910D02B0910E0230910A0223E0230F14
:100950002D3758F50196A11DB11D20930A028093F1
:100960000B0290930C02A0930D02B0930E028091A3
:10097000060290910702A0910802B0910902019627
:10098000A11DB11D8093060290930702A093080257
:10099000B0930902BF91AF919F918F913F912F9199
:1009A0000F900FBE0F901F90189526E8230F029608
:1009B000A11DB11DD2CF1F920F920FB60F9211241D
:1009C0002F933F934F935F936F937F938F939F9357
:1009D000AF93BF93EF93FF938FE092E00E94A30148
:1009E000FF91EF91BF91AF919F918F917F916F9107
:1009F0005F914F913F912F910F900FBE0F901F90DD
:100A000018951F920F920FB60F9211242F938F9368
:100A10009F93EF93FF93E0911F02F091200280815A
:100A2000E0912502F091260282FD1BC09081809109
:100A300028028F5F8F7320912902821741F0E09185
:100A40002802F0E0E15FFD4F958F80932802FF912F
:100A5000EF919F918F912F910F900FBE0F901F904C
:100A600018958081F4CFEFE0F2E01382128288EED5
:100A700093E0A0E0B0E084839583A683B7838AE007
:100A800091E09183808385EC90E09587848784EC66
:100A900090E09787868780EC90E0918B808B81EC4B
:100AA00090E0938B828B82EC90E0958B848B86EC2C
:100AB00090E0978B868B118E128E138E148EE7EB3F
:100AC000F2E087E090E09183808388E090E0938378
:100AD00082838AE090E09583848384E690E0978324
:100AE000868381E090E09093B6028093B502ECEAB1
:100AF000F2E010821282118284E090E0948383837A
:100B000085E090E09683858386E090E090878783F8
:100B10000895CF93DF93CDB7DEB72C970FB6F89437
:100B2000DEBF0FBECDBF789484B5826084BD84B52E
:100B3000816084BD85B5826085BD85B5816085BDD8
:100B400080916E00816080936E0010928100809190
:100B50008100826080938100809181008160809318
:100B60008100809180008160809380008091B1003D
:100B700084608093B1008091B00081608093B00068
:100B800080917A00846080937A0080917A008260FC
:100B900080937A0080917A00816080937A008091BE
:100BA0007A00806880937A001092C100E0911F0261
:100BB000F091200282E08083E0911B02F0911C0200
:100BC0001082E0911D02F0911E028FEC8083109242
:100BD0002702E0912302F091240286E08083E091D5
:100BE0002102F0912202808180618083E0912102C4
:100BF000F0912202808188608083E0912102F0914F
:100C00002202808180688083E0912102F09122029B
:100C100080818F7D80838DE00E9487008DE00E941F
:100C200087008AE00E94870087E090E09093B802F6
:100C30008093B70288E090E09093BA028093B90263
:100C40008AE090E09093BC028093BB0284E690E03F
:100C50009093BE028093BD0281E090E09093B60233
:100C60008093B5021092AC021092AE021092AD02C7
:100C700084E090E09093B0028093AF0285E090E032
:100C80009093B2028093B10286E090E09093B40218
:100C90008093B30261E00E94320290E0292E90E03E
:100CA000392E81E090E00E947E028FE092E00E9467
:100CB0008301892B09F4B4C00E944301FC0197FD14
:100CC000AFC08D32910509F04CC0412C512C80E809
:100CD000682E8FE3782EC12CD12C760110E000E035
:100CE000E130F10559F1ED32F10509F447C0EE327A
:100CF000F10509F445C0CF01C0970A97F8F4AAE0BE
:100D0000B0E0A70196010E94B0096F01FF0FEE0845
:100D1000FF08C60ED71EE81EF91E80E3C81AD108C8
:100D2000E108F108112351F02DEC3CEC4CEC5DE3B3
:100D3000C301B2010E94F2082B013C018FE092E056
:100D40000E9421010E944301FC01C0970A9740F2D2
:100D5000EE32F105B9F4112319F2102F011118C068
:100D600027C0C0970A9708F4B0CFEE32F10509F416
:100D7000ACCF8FE092E00E9421019ECF01E0DECF58
:100D800011E0DCCFE130F10509F4AACF002341F0F6
:100D9000F094E094D094C094C11CD11CE11CF11CCF
:100DA000C701B6010E9493084B015C01112351F069
:100DB000C701B6010E949308A30192010E94F208A4
:100DC0004B015C0120E030E0A901C501B4010E94A3
:100DD0008C08882329F18092020290920302A0924B
:100DE0000402B09205026AE371E0CE0101960E940E
:100DF00075036EE371E0CE0107960E9475039E01B4
:100E00002F5F3F4FB501A401CE0107960E94BE039C
:100E1000CE0107960E946D03CE0101960E946D03DC
:100E200020E030E0A90160910202709103028091FC
:100E30000402909105020E948C08882309F41FC1C6
:100E40006AE371E0CE0101960E9475030E94A6003C
:100E50006B017C016DE471E0CE0107960E94750381
:100E60009E012F5F3F4FB701A601CE0107960E945A
:100E7000BE03CE0107960E946D03CE0101960E942B
:100E80006D03409002025090030260900402709043
:100E9000050220E030E040EA50E4C301B2010E94C4
:100EA000010A6B017C0120E030E040EA50E4C3011C
:100EB000B2010E94020A2B013C010E94A6009B0184
:100EC000AC01C701B6010E94A40A18160CF088C034
:100ED00082E090E00E947E026AE171E0CE0101961C
:100EE0000E9475036CE571E0CE0107960E947503C0
:100EF0009E012F5F3F4F40E050E0BA01CE010796C0
:100F00000E94BE03CE0107960E946D03CE0101969A
:100F10000E946D036AE371E0CE0101960E947503A1
:100F20008090020290900302A0900402B09005020B
:100F300060E971E0CE0107960E9475039E012F5F64
:100F40003F4FB501A401CE0107960E94BE03CE011A
:100F500007960E946D03CE0101960E946D030E94C8
:100F6000A6009B01AC01C701B6010E94A40A181695
:100F70000CF491C06AE371E0CE0101960E94750302
:100F80000E94A6004B015C016DE471E0CE01079662
:100F90000E9475039E012F5F3F4FB501A401CE0152
:100FA00007960E94BE03CE0107960E946D03CE01F4
:100FB00001960E946D0361E08091B7020E943202A7
:100FC00060E08091B9020E9432026091BD0270918E
:100FD000BE028091BB020E949B028AEC91E090C00D
:100FE0000E94A6009B01AC01C301B2010E948C08C3
:100FF00087FD6ECF81E090E00E947E020E94560342
:101000006AE371E0CE0101960E9475030E94A6007A
:101010006B017C0160EE71E0CE0107960E947503C2
:101020009E012F5F3F4FB701A601CE0107960E9498
:10103000BE03CE0107960E946D03CE0101960E9469
:101040006D036AE171E0CE0101960E9475036CE5C3
:1010500071E0CE0107960E9475039E012F5F3F4FFE
:1010600040E050E0BA01CE0107960E94BE03CE01D7
:1010700007960E946D03CE0101960E946D03211414
:10108000310409F40ECE0E948F01882309F409CEA1
:101090000E94000006CE6AE371E0CE0101960E9434
:1010A00075030E94A6004B015C016DE471E0CE0166
:1010B00007960E9475039E012F5F3F4FB501A40163
:1010C000CE0107960E94BE03CE0107960E946D03D3
:1010D000CE0101960E946D0360E08091B7020E94EC
:1010E000320261E08091B9020E9432026091BD0239
:1010F0007091BE028091BB020E949B0285EB91E041
:101100000E9448038FE092E00E948301892B09F43A
:10111000D4CE0E9456036ECF0E94CE0808F481E020
:101120000895E89409C097FB3EF4909580957095DA
:1011300061957F4F8F4F9F4F9923A9F0F92F96E923
:10114000BB279395F695879577956795B795F11198
:10115000F8CFFAF4BB0F11F460FF1BC06F5F7F4F35
:101160008F4F9F4F16C0882311F096E911C0772347
:1011700021F09EE8872F762F05C0662371F096E850
:10118000862F70E060E02AF09A95660F771F881F1F
:10119000DAF7880F9695879597F90895990F0008C3
:1011A000550FAA0BE0E8FEEF16161706E807F90739
:1011B000C0F012161306E407F50798F0621B730BD4
:1011C000840B950B39F40A2661F0232B242B252B55
:1011D00021F408950A2609F4A140A6958FEF811DF8
:1011E000811D08950E9405090C9476090E946809E2
:1011F00038F00E946F0920F0952311F00C945F09DC
:101200000C94650911240C94AA090E94870970F3B3
:10121000959FC1F3950F50E0551F629FF001729F9B
:10122000BB27F00DB11D639FAA27F00DB11DAA1FAA
:10123000649F6627B00DA11D661F829F2227B00DF7
:10124000A11D621F739FB00DA11D621F839FA00D82
:10125000611D221F749F3327A00D611D231F849FD2
:10126000600D211D822F762F6A2F11249F57504029
:101270009AF0F1F088234AF0EE0FFF1FBB1F661FA4
:10128000771F881F91505040A9F79E3F510580F06D
:101290000C945F090C94AA095F3FE4F3983ED4F3E1
:1012A000869577956795B795F795E7959F5FC1F711
:1012B000FE2B880F911D9695879597F9089597F9BC
:1012C0009F6780E870E060E008959FEF80EC0895EC
:1012D00000240A9416161706180609060895002415
:1012E0000A9412161306140605060895092E03948F
:1012F000000C11F4882352F0BB0F40F4BF2B11F403
:1013000060FF04C06F5F7F4F8F4F9F4F089557FD61
:101310009058440F551F59F05F3F71F04795880F63
:1013200097FB991F61F09F3F79F0879508951216FA
:1013300013061406551FF2CF4695F1DF08C01616A6
:1013400017061806991FF1CF869571056105089457
:101350000895E894BB2766277727CB0197F908956E
:101360000E94F209A59F900DB49F900DA49F800D3F
:10137000911D112408952F923F924F925F926F9288
:101380007F928F929F92AF92BF92CF92DF92EF9215
:10139000FF920F931F93CF93DF93CDB7DEB7CA1B96
:1013A000DB0B0FB6F894DEBF0FBECDBF09942A88C1
:1013B000398848885F846E847D848C849B84AA8469
:1013C000B984C884DF80EE80FD800C811B81AA81F6
:1013D000B981CE0FD11D0FB6F894DEBF0FBECDBFC1
:1013E000ED010895A29FB001B39FC001A39F700DAE
:1013F000811D1124911DB29F700D811D1124911D1D
:1014000008955058BB27AA270E94190A0C94760900
:101410000E94680938F00E946F0920F039F49F3F5C
:1014200019F426F40C9465090EF4E095E7FB0C948E
:101430005F09E92F0E94870958F3BA1762077307FB
:101440008407950720F079F4A6F50C94A9090EF409
:10145000E0950B2EBA2FA02D0B01B90190010C01C4
:10146000CA01A0011124FF27591B99F0593F50F4DC
:10147000503E68F11A16F040A22F232F342F442734
:10148000585FF3CF469537952795A795F04053952C
:10149000C9F77EF41F16BA0B620B730B840BBAF0FC
:1014A0009150A1F0FF0FBB1F661F771F881FC2F767
:1014B0000EC0BA0F621F731F841F48F4879577957B
:1014C0006795B795F7959E3F08F0B0CF9395880F35
:1014D00008F09927EE0F9795879508950E94750A51
:1014E0006894B1110C94AA0908950E948F0988F09C
:1014F0009F5798F0B92F9927B751B0F0E1F0660FD8
:10150000771F881F991F1AF0BA95C9F714C0B13018
:1015100091F00E94A909B1E008950C94A909672FE0
:10152000782F8827B85F39F0B93FCCF38695779547
:101530006795B395D9F73EF4909580957095619530
:101540007F4F8F4F9F4F08950E94CE0808F48FEF72
:1015500008950E94CE08880B990B0895A1E21A2ED7
:10156000AA1BBB1BFD010DC0AA1FBB1FEE1FFF1F47
:10157000A217B307E407F50720F0A21BB30BE40B97
:10158000F50B661F771F881F991F1A9469F76095DE
:101590007095809590959B01AC01BD01CF01089598
:1015A000EE0FFF1F0590F491E02D09940F931F9308
:1015B000CF93DF938230910510F482E090E0E091C8
:1015C000C102F091C20230E020E0B0E0A0E030972C
:1015D00099F42115310509F44AC0281B390B243030
:1015E0003105D8F58A819B816115710589F1FB016F
:1015F00093838283FE0111C0408151810281138156
:1016000048175907E0F04817590799F4109761F007
:1016100012960C93129713961C933296CF01DF917A
:10162000CF911F910F9108950093C1021093C202B0
:10163000F4CF2115310551F04217530738F0A901B5
:10164000DB019A01BD01DF01F801C1CFEF01F9CF44
:101650009093C2028093C102CDCFFE01E20FF31F2F
:10166000819391932250310939832883D7CF2091D8
:10167000BF023091C002232B41F42091020130912E
:1016800003013093C0022093BF02209100013091EA
:1016900001012115310541F42DB73EB740910401F8
:1016A00050910501241B350BE091BF02F091C0025F
:1016B000E217F307A0F42E1B3F0B2817390778F029
:1016C000AC014E5F5F4F2417350748F04E0F5F1F88
:1016D0005093C0024093BF02819391939FCFF0E05B
:1016E000E0E09CCFCF93DF930097E9F0FC013297C5
:1016F00013821282A091C102B091C202ED0130E0CA
:1017000020E01097A1F420813181820F931F209156
:10171000BF023091C0022817390709F061C0F09369
:10172000C002E093BF02DF91CF910895EA01CE1786
:10173000DF07E8F54A815B819E0141155105B1F74C
:10174000E901FB83EA8349915991C40FD51FEC1736
:10175000FD0761F4808191810296840F951FE90154
:1017600099838883828193819B838A83F0E0E0E080
:1017700012968D919C9113970097B9F52D913C91FC
:101780001197CD010296820F931F2091BF023091D5
:10179000C0022817390739F6309751F51092C20266
:1017A0001092C102B093C002A093BF02BCCFD383FA
:1017B000C28340815181840F951FC817D90761F4F6
:1017C0004E5F5F4F88819981480F591F5183408335
:1017D0008A819B81938382832115310509F0B0CFE3
:1017E000F093C202E093C1029ECFFD01DC01C0CFA5
:1017F00013821282D7CFB0E0A0E0E1E0FCE00C94CD
:10180000BD098C01009751F4CB010E94D60A8C01CE
:10181000C801CDB7DEB7E0E10C94D909FC01E60FB1
:10182000F71F9C0122503109E217F30708F49DC00D
:10183000D901CD91DC911197C617D70798F0C53023
:10184000D10530F3CE0104978617970708F3C61B1E
:10185000D70B2297C193D1936D937C93CF010E94B4
:10186000720BD6CF5B01AC1ABD0A4C018C0E9D1ECB
:10187000A091C102B091C202512C412CF12CE12C5B
:10188000109731F58091BF029091C002881599059B
:1018900009F05CC04616570608F058C08091000158
:1018A00090910101009741F48DB79EB740910401DA
:1018B00050910501841B950BE817F90708F055C0F6
:1018C000F093C002E093BF02F90171836083A0CF5F
:1018D0008D919C91119712966C90129713967C9013
:1018E0001397A815B90559F56C0142E0C40ED11C37
:1018F000CA14DB0420F1AC014A195B09DA01129623
:10190000159780F06282738251834083D9016D9371
:101910007C93E114F10471F0D7011396FC93EE93DC
:10192000129776CF22968C0F9D1FF90191838083A9
:10193000F301EFCFF093C202E093C10269CF4816E2
:10194000590608F42C017D01D3019ACFCB010E94E6
:10195000D60A7C01009749F0AE01B8010E94B80C8C
:10196000C8010E94720B870153CF10E000E050CFF6
:10197000FB01DC0102C001900D9241505040D8F7AC
:101980000895FB01DC0101900D920020E1F708951C
:04199000F894FFCFF9
:101994000000C302800000000000C501E500120140
:1019A40012028301210135010D0A006D6F746F72FB
:1019B4002073746F7065642E2E00202D20006E61DC
:1019C4006E00696E66006F7666006B50610074612C
:1019D40072676574207072657375726500737973CC
:1019E40074656D2070726573757265002D2D2D2DD3
:1019F4002D2D2D2D2D2D2D2D2D2D2D2D2D2D2D2D13
:101A04002D2D2D2D2D2D2D2D2D2D2D2D2D2D2D2D02
:101A14002D2D2D2D2D2D2D2D2D2D2D2D2D2D2D001F
:101A24005265646572696E6720737461727465646B
:101A3400202121205B746172676574207072657364
:101A44007572655D006D6F746F72207370696E6975
:101A54006E67206C6566742E2E006D6F746F722035
:101A64007370696E696E672072696768742E2E00E0
:101A74007265646572696E6720636F6D706C6574FE
:101A8400656420212120617420707265737572650C
:021A9400000050
:107E0000112484B714BE81FFF0D085E080938100F7
:107E100082E08093C00088E18093C10086E0809377
:107E2000C20080E18093C4008EE0C9D0259A86E02C
:107E300020E33CEF91E0309385002093840096BBD3
:107E4000B09BFECF1D9AA8958150A9F7CC24DD24C4
:107E500088248394B5E0AB2EA1E19A2EF3E0BF2EE7
:107E6000A2D0813461F49FD0082FAFD0023811F036
:107E7000013811F484E001C083E08DD089C08234E0
:107E800011F484E103C0853419F485E0A6D080C0E4
:107E9000853579F488D0E82EFF2485D0082F10E0AE
:107EA000102F00270E291F29000F111F8ED06801E7
:107EB0006FC0863521F484E090D080E0DECF843638
:107EC00009F040C070D06FD0082F6DD080E0C81688
:107ED00080E7D80618F4F601B7BEE895C0E0D1E017
:107EE00062D089930C17E1F7F0E0CF16F0E7DF06D8
:107EF00018F0F601B7BEE89568D007B600FCFDCFD4
:107F0000A601A0E0B1E02C9130E011968C91119780
:107F100090E0982F8827822B932B1296FA010C0160
:107F200087BEE89511244E5F5F4FF1E0A038BF0790
:107F300051F7F601A7BEE89507B600FCFDCF97BE46
:107F4000E89526C08437B1F42ED02DD0F82E2BD052
:107F50003CD0F601EF2C8F010F5F1F4F84911BD097
:107F6000EA94F801C1F70894C11CD11CFA94CF0C13
:107F7000D11C0EC0853739F428D08EE10CD085E9AC
:107F80000AD08FE07ACF813511F488E018D01DD067
:107F900080E101D065CF982F8091C00085FFFCCF94
:107FA0009093C60008958091C00087FFFCCF809118
:107FB000C00084FD01C0A8958091C6000895E0E648
:107FC000F0E098E1908380830895EDDF803219F02E
:107FD00088E0F5DFFFCF84E1DECF1F93182FE3DFCA
:107FE0001150E9F7F2DF1F91089580E0E8DFEE27F6
:047FF000FF270994CA
:027FFE00040479
:0400000300007E007B
:00000001FF
