:100000000C945D000C9485000C9485000C94850084
:100010000C9485000C9485000C9485000C9485004C
:100020000C9485000C9485000C9485000C9485003C
:100030000C9485000C9485000C9485000C9485002C
:100040000C94E0020C9485000C9450030C942A0349
:100050000C9485000C9485000C9485000C9485000C
:100060000C9485000C94850000000008000201003B
:100070000003040700000000000000000000000072
:10008000250028002B0000000000240027002A0083
:10009000040404040404040402020202020203032E
:1000A0000303030301020408102040800102040836
:1000B0001020010204081020820311241FBECFEF7C
:1000C000D8E0DEBFCDBF21E0A0E3B1E001C01D92CA
:1000D000A03EB207E1F711E0A0E0B1E0E2E4FEE00B
:1000E00002C005900D92A033B107D9F710E0CDE51D
:1000F000D0E004C02197FE010E942705CC35D1072E
:10010000C9F70E94BF030C941F070C940000E1EB99
:10011000F0E02491EDE9F0E08491882399F090E0FB
:10012000880F991FFC01EA57FF4FA591B491FC017C
:10013000E458FF4F859194918FB7F894EC91E22B9E
:10014000EC938FBF0895E5E7F0E02491E1EBF0E058
:100150009491EDE9F0E0E491EE23C9F0222339F027
:10016000233001F1A8F4213019F1223029F1F0E017
:10017000EE0FFF1FE458FF4FA591B4912FB7F894ED
:10018000EC91811126C090959E239C932FBF0895DA
:100190002730A9F02830C9F0243049F72091800099
:1001A0002F7D03C0209180002F7720938000DFCF28
:1001B00024B52F7724BDDBCF24B52F7DFBCF209135
:1001C000B0002F772093B000D2CF2091B0002F7DC8
:1001D000F9CF9E2BDACFAF92BF92CF92DF92EF9200
:1001E000FF920F931F93CF93DF936C017B018B01E1
:1001F000040F151FEB015E01AE18BF08C017D10731
:1002000059F06991D601ED91FC910190F081E02DBA
:10021000C6010995892B79F7C501DF91CF911F910F
:100220000F91FF90EF90DF90CF90BF90AF90089527
:10023000FC01538D448D252F30E0842F90E0821BEC
:10024000930B541710F0CF96089501970895FC0171
:10025000918D828D981761F0A28DAE0FBF2FB11DC9
:100260005D968C91928D9F5F9F73928F90E0089521
:100270008FEF9FEF0895FC01918D828D981731F0DB
:10028000828DE80FF11D858D90E008958FEF9FEF2F
:100290000895FC01918D228D892F90E0805C9F4F05
:1002A000821B91098F739927089589E391E00E9439
:1002B000490121E0892B09F420E0822F089580E094
:1002C00090E0892B29F00E94550181110C940000C7
:1002D0000895FC01A48DA80FB92FB11DA35ABF4FDB
:1002E0002C91848D90E001968F739927848FA68935
:1002F000B7892C93A089B1898C91837080648C9389
:10030000938D848D981306C00288F389E02D808137
:100310008F7D80830895EF92FF920F931F93CF9369
:10032000DF93EC0181E0888F9B8D8C8D98131AC030
:10033000E889F989808185FF15C09FB7F894EE8917
:10034000FF896083E889F989808183708064808374
:100350009FBF81E090E0DF91CF911F910F91FF90BF
:10036000EF900895F62E0B8D10E00F5F1F4F0F7367
:100370001127E02E8C8D8E110CC00FB607FCFACF22
:10038000E889F989808185FFF5CFCE010E94690156
:10039000F1CFEB8DEC0FFD2FF11DE35AFF4FF082F3
:1003A0009FB7F8940B8FEA89FB8980818062CFCF59
:1003B000CF93DF93EC01888D8823B9F0AA89BB899C
:1003C000E889F9898C9185FD03C0808186FD0DC087
:1003D0000FB607FCF7CF8C9185FFF2CF808185FFA8
:1003E000EDCFCE010E946901E9CFDF91CF91089551
:1003F000FC0101900020E9F73197AF01481B590B30
:10040000BC0189E391E00C94EB008F929F92AF9234
:10041000BF920F931F93CF93DF93CDB7DEB7A19712
:100420000FB6F894DEBF0FBECDBF19A2423008F45C
:100430004AE08E010F5D1F4F842E912CB12CA12C10
:10044000A50194010E940505E62FB901CA01EA3011
:10045000F4F4E05DD801EE938D01232B242B252BA2
:1004600079F790E080E0109719F0CD010E94F80133
:10047000A1960FB6F894DEBF0FBECDBFDF91CF912E
:100480001F910F91BF90AF909F908F900895E95C5E
:10049000E1CF0F931F93CF93DF938C01EB018AE1A0
:1004A00091E00E94F80188E191E00E94F801F801D2
:1004B000448155816081718189E391E00E94EB0064
:1004C0008BE191E00E94F8014AE060E070E0CB012E
:1004D0000E9405026EE289E391E00E948B014AE0EE
:1004E00060E070E0CB010E9405024AE060E070E04D
:1004F000CB010E9405024C815D816881798189E38D
:1005000091E00E94EB008AE191E00E94F80188E10D
:1005100091E0DF91CF911F910F910C94F801FC01B4
:1005200080819181009711F00C94C9050895EF9294
:10053000FF920F931F93CF93DF93EC017B011982FE
:1005400018821B821A821D821C82FB0101900020EE
:10055000E9F731978F01061B170BB8016F5F7F4FCB
:1005600090E080E00E9452060097B9F0998388835A
:100570001B830A832C813D81232B11F4FC01108203
:100580001D830C83B70188819981DF91CF911F91E1
:100590000F91FF90EF900C94180788819981009734
:1005A00011F00E94C905198218821D821C821B82CB
:1005B0001A82DF91CF911F910F91FF90EF900895D4
:1005C0001F920F920FB60F9211242F933F938F9388
:1005D0009F93AF93BF938091350190913601A09185
:1005E0003701B09138013091340123E0230F2D37CA
:1005F00058F50196A11DB11D20933401809335015A
:1006000090933601A0933701B09338018091300167
:1006100090913101A0913201B09133010196A11D59
:10062000B11D8093300190933101A0933201B093BA
:100630003301BF91AF919F918F913F912F910F9077
:100640000FBE0F901F90189526E8230F0296A11D4C
:10065000B11DD2CF1F920F920FB60F9211242F937C
:100660003F934F935F936F937F938F939F93AF933A
:10067000BF93EF93FF9389E391E00E946901FF919B
:10068000EF91BF91AF919F918F917F916F915F910A
:100690004F913F912F910F900FBE0F901F90189583
:1006A0001F920F920FB60F9211242F938F939F9347
:1006B000EF93FF93E0914901F0914A018081E0912D
:1006C0004F01F091500182FD1BC090818091520139
:1006D0008F5F8F7320915301821741F0E091520197
:1006E000F0E0E75CFE4F958F80935201FF91EF9110
:1006F0009F918F912F910F900FBE0F901F90189583
:100700008081F4CFE9E3F1E01382128288EE93E076
:10071000A0E0B0E084839583A683B7838AE091E06C
:100720009183808385EC90E09587848784EC90E0CA
:100730009787868780EC90E0918B808B81EC90E0AE
:10074000938B828B82EC90E0958B848B86EC90E08F
:10075000978B868B118E128E138E148EE8EDF1E03E
:100760008DE090E0918380838EE090E0938382839C
:1007700081E090E09093D7018093D6010895CF93C4
:10078000DF93CDB7DEB72C970FB6F894DEBF0FBE60
:10079000CDBF789484B5826084BD84B5816084BD0A
:1007A00085B5826085BD85B5816085BD80916E000F
:1007B000816080936E001092810080918100826040
:1007C000809381008091810081608093810080917D
:1007D00080008160809380008091B100846080936C
:1007E000B1008091B00081608093B00080917A0068
:1007F000846080937A0080917A00826080937A008E
:1008000080917A00816080937A0080917A0080687C
:1008100080937A001092C100E0914901F0914A0161
:1008200082E08083E0914501F09146011082E091E1
:100830004701F09148018FEC808310925101E091C3
:100840004D01F0914E0186E08083E0914B01F091E3
:100850004C01808180618083E0914B01F0914C01DB
:10086000808188608083E0914B01F0914C01808110
:1008700080688083E0914B01F0914C0180818F7DF5
:1008800080830E9487000E9487008DE090E0909313
:10089000D9018093D8018EE090E09093DB018093A2
:1008A000DA0181E090E09093D7018093D60100E0D7
:1008B00010E089E391E00E944901892B21F189E34D
:1008C00091E00E942701813441F56FE171E0CE0192
:1008D00007960E94970261E271E0CE0101960E94A4
:1008E0009702BE01695F7F4FCE0101960E944902C7
:1008F000CE0101960E948F02CE0107960E948F02C0
:1009000081E00E94A3000115110599F20E94550192
:10091000882379F20E940000CCCF8234E9F469E2A6
:1009200071E0CE0107960E94970261E271E0CE016C
:1009300001960E949702BE01695F7F4FCE0101962A
:100940000E944902CE0101960E948F02CE010796B5
:100950000E948F0280E0D5CF6BE271E0833421F0FA
:10096000843489F66DE271E0CE0107960E94970209
:1009700061E271E0CE0101960E949702BE01695FBB
:100980007F4FCE0101960E944902CE0101960E943E
:100990008F02CE0107960E948F02B5CF2F923F9211
:1009A0004F925F926F927F928F929F92AF92BF927F
:1009B000CF92DF92EF92FF920F931F93CF93DF932B
:1009C000CDB7DEB7CA1BDB0B0FB6F894DEBF0FBE88
:1009D000CDBF09942A88398848885F846E847D84D5
:1009E0008C849B84AA84B984C884DF80EE80FD80D7
:1009F0000C811B81AA81B981CE0FD11D0FB6F8944D
:100A0000DEBF0FBECDBFED010895A1E21A2EAA1BD5
:100A1000BB1BFD010DC0AA1FBB1FEE1FFF1FA217AE
:100A2000B307E407F50720F0A21BB30BE40BF50BAB
:100A3000661F771F881F991F1A9469F76095709534
:100A4000809590959B01AC01BD01CF010895EE0FFB
:100A5000FF1F0590F491E02D09940F931F93CF93FE
:100A6000DF938230910510F482E090E0E091DE01A6
:100A7000F091DF0130E020E0B0E0A0E0309799F4A1
:100A80002115310509F44AC0281B390B24303105E2
:100A9000D8F58A819B816115710589F1FB019383EA
:100AA0008283FE0111C04081518102811381481768
:100AB0005907E0F04817590799F4109761F012961A
:100AC0000C93129713961C933296CF01DF91CF911E
:100AD0001F910F9108950093DE011093DF01F4CF71
:100AE0002115310551F04217530738F0A901DB01F8
:100AF0009A01BD01DF01F801C1CFEF01F9CF909359
:100B0000DF018093DE01CDCFFE01E20FF31F819361
:100B100091932250310939832883D7CF2091DC016A
:100B20003091DD01232B41F420910201309103012A
:100B30003093DD012093DC0120910001309101010F
:100B40002115310541F42DB73EB740910401509174
:100B50000501241B350BE091DC01F091DD01E2176A
:100B6000F307A0F42E1B3F0B2817390778F0AC01D0
:100B70004E5F5F4F2417350748F04E0F5F1F5093AD
:100B8000DD014093DC01819391939FCFF0E0E0E0A1
:100B90009CCFCF93DF930097E9F0FC01329713824B
:100BA0001282A091DE01B091DF01ED0130E020E082
:100BB0001097A1F420813181820F931F2091DC01D5
:100BC0003091DD012817390709F061C0F093DD018C
:100BD000E093DC01DF91CF910895EA01CE17DF07A2
:100BE000E8F54A815B819E0141155105B1F7E901A4
:100BF000FB83EA8349915991C40FD51FEC17FD0778
:100C000061F4808191810296840F951FE901998397
:100C10008883828193819B838A83F0E0E0E012964F
:100C20008D919C9113970097B9F52D913C91119757
:100C3000CD010296820F931F2091DC013091DD01DE
:100C40002817390739F6309751F51092DF011092C5
:100C5000DE01B093DD01A093DC01BCCFD383C2835E
:100C600040815181840F951FC817D90761F44E5FE9
:100C70005F4F88819981480F591F518340838A8132
:100C80009B81938382832115310509F0B0CFF093C6
:100C9000DF01E093DE019ECFFD01DC01C0CF1382B6
:100CA0001282D7CFB0E0A0E0E8E5F6E00C94D004E3
:100CB0008C01009751F4CB010E942D058C01C801D5
:100CC000CDB7DEB7E0E10C94EC04FC01E60FF71FB2
:100CD0009C0122503109E217F30708F49DC0D901A5
:100CE000CD91DC911197C617D70798F0C530D10583
:100CF00030F3CE0104978617970708F3C61BD70B6E
:100D00002297C193D1936D937C93CF010E94C90523
:100D1000D6CF5B01AC1ABD0A4C018C0E9D1EA09172
:100D2000DE01B091DF01512C412CF12CE12C109708
:100D300031F58091DC019091DD018815990509F06C
:100D40005CC04616570608F058C08091000190918B
:100D50000101009741F48DB79EB740910401509175
:100D60000501841B950BE817F90708F055C0F093AF
:100D7000DD01E093DC01F90171836083A0CF8D91E7
:100D80009C91119712966C90129713967C901397E2
:100D9000A815B90559F56C0142E0C40ED11CCA145E
:100DA000DB0420F1AC014A195B09DA0112961597B0
:100DB00080F06282738251834083D9016D937C936A
:100DC000E114F10471F0D7011396FC93EE9312979E
:100DD00076CF22968C0F9D1FF90191838083F301BA
:100DE000EFCFF093DF01E093DE0169CF481659069B
:100DF00008F42C017D01D3019ACFCB010E942D056F
:100E00007C01009749F0AE01B8010E940F07C801AC
:100E10000E94C905870153CF10E000E050CFFB01CD
:100E2000DC0102C001900D9241505040D8F7089566
:100E3000FB01DC0101900D920020E1F70895F89488
:020E4000FFCFE2
:100E42000000E0018000000000008B01EB001801AF
:100E5200D801490127013B010D0A00202D20004144
:100E620000636C69636B65640042004300440000E8
:107E0000112484B714BE81FFF0D085E080938100F7
:107E100082E08093C00088E18093C10086E0809377
:107E2000C20080E18093C4008EE0C9D0259A86E02C
:107E300020E33CEF91E0309385002093840096BBD3
:107E4000B09BFECF1D9AA8958150A9F7CC24DD24C4
:107E500088248394B5E0AB2EA1E19A2EF3E0BF2EE7
:107E6000A2D0813461F49FD0082FAFD0023811F036
:107E7000013811F484E001C083E08DD089C08234E0
:107E800011F484E103C0853419F485E0A6D080C0E4
:107E9000853579F488D0E82EFF2485D0082F10E0AE
:107EA000102F00270E291F29000F111F8ED06801E7
:107EB0006FC0863521F484E090D080E0DECF843638
:107EC00009F040C070D06FD0082F6DD080E0C81688
:107ED00080E7D80618F4F601B7BEE895C0E0D1E017
:107EE00062D089930C17E1F7F0E0CF16F0E7DF06D8
:107EF00018F0F601B7BEE89568D007B600FCFDCFD4
:107F0000A601A0E0B1E02C9130E011968C91119780
:107F100090E0982F8827822B932B1296FA010C0160
:107F200087BEE89511244E5F5F4FF1E0A038BF0790
:107F300051F7F601A7BEE89507B600FCFDCF97BE46
:107F4000E89526C08437B1F42ED02DD0F82E2BD052
:107F50003CD0F601EF2C8F010F5F1F4F84911BD097
:107F6000EA94F801C1F70894C11CD11CFA94CF0C13
:107F7000D11C0EC0853739F428D08EE10CD085E9AC
:107F80000AD08FE07ACF813511F488E018D01DD067
:107F900080E101D065CF982F8091C00085FFFCCF94
:107FA0009093C60008958091C00087FFFCCF809118
:107FB000C00084FD01C0A8958091C6000895E0E648
:107FC000F0E098E1908380830895EDDF803219F02E
:107FD00088E0F5DFFFCF84E1DECF1F93182FE3DFCA
:107FE0001150E9F7F2DF1F91089580E0E8DFEE27F6
:047FF000FF270994CA
:027FFE00040479
:0400000300007E007B
:00000001FF
