:100000000C945D000C9485000C9485000C94850084
:100010000C9485000C9485000C9485000C9485004C
:100020000C9485000C9485000C9485000C9485003C
:100030000C9485000C9485000C9485000C9485002C
:100040000C9448050C9485000C9416050C94F0044F
:100050000C9485000C9485000C9485000C9485000C
:100060000C9485000C94850000000008000201003B
:100070000003040700000000000000000000000072
:10008000250028002B0000000000240027002A0083
:10009000040404040404040402020202020203032E
:1000A0000303030301020408102040800102040836
:1000B0001020010204081020920511241FBECFEF6A
:1000C000D8E0DEBFCDBF22E0A6E2B2E001C01D92C3
:1000D000A73EB207E1F712E0A0E0B1E0E0E3FAE109
:1000E00002C005900D92A632B107D9F710E0CDE518
:1000F000D0E004C02197FE010E941E0BCC35D10731
:10010000C9F70E94E8050C94160D0C94000090E0CD
:10011000FC01EC55FF4F249180579F4FFC018491C7
:10012000882399F090E0880F991FFC01EA57FF4F50
:10013000A591B491FC01E458FF4F859194918FB73C
:10014000F894EC91E22BEC938FBF08958091D90243
:100150008E3008F08E508770806480937C00809190
:100160007A00806480937A0080917A0086FDFCCFCB
:100170008091780060917900762F682F072E000C0F
:10018000880B990B0E94E10820E030E040EA50E43F
:100190000E94400920E030E040E85AE30E94400914
:1001A00027EC3BE447EF5EE30E944F0A20E030E09B
:1001B00048EC53E40E9440090E94BC0A072E000C40
:1001C000880B990B0E94E1080895AF92BF92CF92DD
:1001D000DF92EF92FF920F931F93CF93DF936C0107
:1001E0007B018B01040F151FEB015E01AE18BF08E8
:1001F000C017D10759F06991D601ED91FC9101909A
:10020000F081E02DC6010995892B79F7C501DF91B1
:10021000CF911F910F91FF90EF90DF90CF90BF9003
:10022000AF900895FC01448155816081718183E321
:1002300092E00C94E500FC01538D448D252F30E0B5
:10024000842F90E0821B930B541710F0CF960895E3
:1002500001970895FC01918D828D981761F0A28D10
:10026000AE0FBF2FB11D5D968C91928D9F5F9F73D6
:10027000928F90E008958FEF9FEF0895FC01918D8C
:10028000828D981731F0828DE80FF11D858D90E0F9
:1002900008958FEF9FEF08952FB7F89480912F0264
:1002A00090913002A0913102B09132022FBF809321
:1002B0003B0290933C02A0933D02B0933E0283E345
:1002C00092E00E943E0197FF26C02FB7F8948091DC
:1002D0002F0290913002A0913102B09132022FBFD3
:1002E00040913B0250913C0260913D0270913E0270
:1002F000841B950BA60BB70B409137025091380227
:100300006091390270913A0284179507A607B707E2
:10031000B0F28FEF9FEF0895FC01918D228D892F10
:1003200090E0805C9F4F821B91098F7399270895FD
:1003300083E392E00E948C0121E0892B09F420E004
:10034000822F089580E090E0892B29F00E94980187
:1003500081110C9400000895FC01A48DA80FB92F01
:10036000B11DA35ABF4F2C91848D90E001968F73DD
:100370009927848FA689B7892C93A089B1898C91FC
:10038000837080648C93938D848D981306C002884B
:10039000F389E02D80818F7D80830895EF92FF9215
:1003A0000F931F93CF93DF93EC0181E0888F9B8D98
:1003B0008C8D98131AC0E889F989808185FF15C052
:1003C0009FB7F894EE89FF896083E889F989808175
:1003D0008370806480839FBF81E090E0DF91CF9144
:1003E0001F910F91FF90EF900895F62E0B8D10E066
:1003F0000F5F1F4F0F731127E02E8C8D8E110CC0D5
:100400000FB607FCFACFE889F989808185FFF5CF1F
:10041000CE010E94AC01F1CFEB8DEC0FFD2FF11D51
:10042000E35AFF4FF0829FB7F8940B8FEA89FB895C
:1004300080818062CFCFCF93DF93EC01888D8823BA
:10044000B9F0AA89BB89E889F9898C9185FD03C037
:10045000808186FD0DC00FB607FCF7CF8C9185FF1C
:10046000F2CF808185FFEDCFCE010E94AC01E9CFB4
:10047000DF91CF91089590E0FC01E859FF4F24915E
:10048000FC01EC55FF4F3491FC01E057FF4FE49124
:10049000EE23C9F0222339F0233001F1A8F42130F2
:1004A00019F1223029F1F0E0EE0FFF1FE458FF4F61
:1004B000A591B4918FB7F894EC91611126C0309555
:1004C0003E233C938FBF08952730A9F02830C9F010
:1004D000243049F7809180008F7D03C08091800097
:1004E0008F7780938000DFCF84B58F7784BDDBCF9B
:1004F00084B58F7DFBCF8091B0008F778093B00063
:10050000D2CF8091B0008F7DF9CF3E2BDACF8130F2
:10051000910551F461E08091D3020E943B0260E0BA
:100520008091D5020C943B0261E08230910519F074
:10053000892B49F460E08091D5020E943B0260E083
:100540008091D302EFCF08951F93CF93DF93182F9D
:10055000EB010E948700209739F460E0812FDF9142
:10056000CF911F910C943B02CF3FD10511F461E074
:10057000F5CFE12FF0E0E859FF4FE491E33031F19E
:1005800040F4E130B1F0E230E1F0C038D1057CF761
:10059000E4CFE73029F1E83059F1E430B1F7809148
:1005A0008000806280938000D0938B00C0938A008B
:1005B00004C084B5806884BDC7BDDF91CF911F9111
:1005C000089584B5806284BDC8BDF7CF8091800056
:1005D000806880938000D0938900C0938800EDCF1D
:1005E0008091B00080688093B000C093B300E5CFE5
:1005F0008091B00080628093B000C093B400DDCFE2
:100600003FB7F8948091270290912802A091290287
:10061000B0912A0226B5A89B05C02F3F19F001967C
:10062000A11DB11D3FBFBA2FA92F982F8827BC014C
:10063000CD01620F711D811D911D42E0660F771F74
:10064000881F991F4A95D1F708958F929F92AF9274
:10065000BF92CF92DF92EF92FF920E9400034B0174
:100660005C0180EDC82E87E0D82EE12CF12C0E9491
:100670000003681979098A099B09683E734081055E
:100680009105A8F321E0C21AD108E108F10888EE2B
:10069000880E83E0981EA11CB11CC114D104E10492
:1006A000F10429F7FF90EF90DF90CF90BF90AF90CB
:1006B0009F908F900895FC0101900020E9F73197F9
:1006C000AF01481B590BBC0183E392E00C94E50099
:1006D0008F929F92AF92BF920F931F93CF93DF930E
:1006E000CDB7DEB7A1970FB6F894DEBF0FBECDBF72
:1006F00019A2423008F44AE08E010F5D1F4F842E8C
:10070000912CB12CA12CA50194010E94FC0AE62F8A
:10071000B901CA01EA30F4F4E05DD801EE938D012D
:10072000232B242B252B79F790E080E0109719F0EC
:10073000CD010E945B03A1960FB6F894DEBF0FBEF9
:10074000CDBFDF91CF911F910F91BF90AF909F9040
:100750008F900895E95CE1CF0E94120188E191E059
:100760000C945B03CF93DF930E945B03EC0188E161
:1007700091E00E945B038C0F9D1FDF91CF91089544
:10078000CF93DF93CBEDD2E060E08A810E943B0201
:1007900060E088810E943B0270E060E08C810E94F2
:1007A000A4028BE191E0DF91CF910C94B203FC01A4
:1007B00080819181009711F00C94C00B0895EF9205
:1007C000FF920F931F93CF93DF93EC017B0119826C
:1007D00018821B821A821D821C82FB01019000205C
:1007E000E9F731978F01061B170BB8016F5F7F4F39
:1007F00090E080E00E94490C0097B9F099838883CB
:100800001B830A832C813D81232B11F4FC01108270
:100810001D830C83B70188819981DF91CF911F914E
:100820000F91FF90EF900C940F0D888199810097A4
:1008300011F00E94C00B198218821D821C821B823B
:100840001A82DF91CF911F910F91FF90EF90089541
:100850008F929F92AF92BF92CF92DF92EF92FF92D0
:10086000CF93DF935C016A017B01E9018AE191E0AA
:100870000E94B203C5010E9412018AE291E00E9427
:100880005B03A7019601C701B6010E94F70A8823FE
:10089000A9F08EE291E00E945B03CE010E9412015A
:1008A0008AE191E0DF91CF91FF90EF90DF90CF90C0
:1008B000BF90AF909F908F900C94B2034601570168
:1008C000E894B7F82FEF3FEF4FE75FE7C501B401BA
:1008D0000E94F70A81110DC02FEF3FEF4FE75FE74E
:1008E000C501B4010E94DA0818161CF482E391E0F5
:1008F000D2CF2FEF3FEF4FE75FE4C701B6010E9471
:10090000F20A18161CF486E391E0C5CF2FEF3FEFF3
:100910004FE75FECC701B6010E94DA0887FDF3CF0D
:1009200020E030E0A901C701B6010E94DA0887FF84
:1009300009C06DE283E392E00E94CE01F7FAF094E1
:10094000F7F8F0942AE037ED43EA5BE3C701B6011C
:100950000E94500A4B015C010E94C30A6B017C019A
:100960000E94DF089B01AC01C501B4010E944F0A3F
:100970004B015C014AE0C701B6010E9468036EE2C8
:1009800083E392E00E94CE0120E030E040E251E4B7
:10099000C501B4010E9440094B015C010E94C30AD9
:1009A0006B01F12CE12C4AE0C701B6010E946803FB
:1009B000C701B6010E94DF089B01AC01C501B4016B
:1009C0000E944F0A20E030E040E251E40E944009DA
:1009D0000E94C30A90E080E04AE00E9468035DCF75
:1009E0001F920F920FB60F9211242F933F934F93A4
:1009F0005F936F937F938F939F93AF93BF93EF9387
:100A0000FF9383E392E00E94AC01FF91EF91BF91CD
:100A1000AF919F918F917F916F915F914F913F9196
:100A20002F910F900FBE0F901F9018951F920F924D
:100A30000FB60F9211242F938F939F93EF93FF93F1
:100A4000E0914302F09144028081E0914902F091EB
:100A50004A0282FD1BC0908180914C028F5F8F7390
:100A600020914D02821741F0E0914C02F0E0ED5CE4
:100A7000FD4F958F80934C02FF91EF919F918F9145
:100A80002F910F900FBE0F901F9018958081F4CF7B
:100A90001F920F920FB60F9211242F933F938F93B3
:100AA0009F93AF93BF9380912F0290913002A091BA
:100AB0003102B09132023091260223E0230F2D370C
:100AC00058F50196A11DB11D2093260280932F0297
:100AD00090933002A0933102B093320280912702AA
:100AE00090912802A0912902B0912A020196A11D9D
:100AF000B11D8093270290932802A0932902B093FE
:100B00002A02BF91AF919F918F913F912F910F90AA
:100B10000FBE0F901F90189526E8230F0296A11D77
:100B2000B11DD2CFE3E3F2E01382128288EE93E0AC
:100B3000A0E0B0E084839583A683B7838AE091E048
:100B40009183808385EC90E09587848784EC90E0A6
:100B50009787868780EC90E0918B808B81EC90E08A
:100B6000938B828B82EC90E0958B848B86EC90E06B
:100B7000978B868B118E128E138E148EEBEDF2E016
:100B800082E090E09183808388E090E09383828389
:100B90008AE090E09583848384E690E0978386835F
:100BA00081E090E09093DA028093D902E0EDF2E0E8
:100BB00010821282118284E090E09483838385E026
:100BC00090E09683858386E090E090878783089500
:100BD000CF93DF93CDB7DEB72C970FB6F894DEBF77
:100BE0000FBECDBF789484B5826084BD84B581602A
:100BF00084BD85B5826085BD85B5816085BD8091E8
:100C00006E00816080936E0010928100809181005F
:100C10008260809381008091810081608093810057
:100C2000809180008160809380008091B100846019
:100C30008093B1008091B00081608093B00080917A
:100C40007A00846080937A0080917A008260809339
:100C50007A0080917A00816080937A0080917A0096
:100C6000806880937A001092C100E0914302F09175
:100C7000440282E08083E0913F02F09140021082C2
:100C8000E0914102F09142028FEC808310924B027E
:100C9000E0914702F091480286E08083E0914502AE
:100CA000F0914602808180618083E0914502F0915D
:100CB0004602808188608083E0914502F09146027F
:100CC000808180688083E0914502F09146028081B6
:100CD0008F7D80838DE00E9487008DE00E948700D9
:100CE0008AE00E94870082E090E09093DC0280938B
:100CF000DB0288E090E09093DE028093DD028AE0E0
:100D000090E09093E0028093DF0284E690E090937D
:100D1000E2028093E10281E090E09093DA02809316
:100D2000D9021092D0021092D2021092D10284E025
:100D300090E09093D4028093D30285E090E090936A
:100D4000D6028093D50286E090E09093D8028093FB
:100D5000D70261E00E943B0200E010E081E090E0F9
:100D60000E94870283E392E00E948C01892B09F4A0
:100D7000B6C00E944C01FC0197FDB1C08D329105B7
:100D800009F04CC0412C512C80E8682E8FE3782E5E
:100D9000C12CD12C7601312CA12CE130F10559F177
:100DA000ED32F10509F447C0EE32F10509F446C011
:100DB000CF01C0970A97F8F4AAE0B0E0A701960126
:100DC0000E94FE096F01FF0FEE08FF08C60ED71E36
:100DD000E81EF91E80E3C81AD108E108F1083320A3
:100DE00051F02DEC3CEC4CEC5DE3C301B2010E94F0
:100DF00040092B013C0183E392E00E942A010E94FA
:100E00004C01FC01C0970A9740F2EE32F105C9F49B
:100E1000332019F23A2CA1101AC029C0C0970A97A2
:100E200008F4B0CFEE32F10509F4ACCF83E392E0E1
:100E30000E942A019ECFAA24A394DDCF33243394A9
:100E4000DACFE130F10509F4A8CFAA2041F0F094FF
:100E5000E094D094C094C11CD11CE11CF11CC701CA
:100E6000B6010E94E1084B015C01332051F0C7013B
:100E7000B6010E94E108A30192010E9440094B01C2
:100E80005C0120E030E0A901C501B4010E94DA084C
:100E9000882329F180922B0290922C02A0922D029D
:100EA000B0922E026AE371E0CE0101960E94DF0348
:100EB0006EE371E0CE0107960E94DF039E012F5F73
:100EC0003F4FB501A401CE0107960E942804CE0130
:100ED00007960E94D703CE0101960E94D70320E017
:100EE00030E0A90160912B0270912C0280912D02BB
:100EF00090912E020E94DA08882309F435C16AE332
:100F000071E0CE0101960E94DF030E94A6006B01F2
:100F10007C016DE471E0CE0107960E94DF039E0123
:100F20002F5F3F4FB701A601CE0107960E9428040C
:100F3000CE0107960E94D703CE0101960E94D703E7
:100F40000E94A6006B017C0140902B0250902C0265
:100F500060902D0270902E0220E030E040E85FE3C8
:100F6000C301B2010E944F0A9B01AC01C701B60147
:100F70000E94DA0887FD11C020E030E040E85FE31E
:100F8000C301B2010E94500A9B01AC01C701B60126
:100F90000E94F20A18160CF0A8C082E090E00E94AD
:100FA00087026CE571E0CE0101960E94DF03CE015D
:100FB00001960E94AC03CE0101960E94D7036AE31A
:100FC00071E0CE0101960E94DF0340902B02509009
:100FD0002C0260902D0270902E0265E971E0CE0126
:100FE00007960E94DF039E012F5F3F4FB301A201CE
:100FF000CE0107960E942804CE0107960E94D703CF
:10100000CE0101960E94D7036CE571E0CE010196F6
:101010000E94DF03CE0101960E94AC03CE0101962F
:101020000E94D7036AE371E0CE0101960E94DF03BC
:101030006BEB71E0CE0107960E94DF039E012F5FEC
:101040003F4FB701A601CE0107960E942804CE01AA
:1010500007960E94D703CE0101960E94D7034090C5
:101060002B0250902C0260902D0270902E0220E0F6
:1010700030E040E85FE3C301B2010E944F0AA701DC
:1010800096010E94F20A18160CF47AC020E030E0B3
:1010900040E85FE3C301B2010E94500AA701960134
:1010A0000E94DA0887FF21C061E08091DB020E9484
:1010B0003B0260E08091DD020E943B026091E10210
:1010C0007091E2028091DF020E94A4028AED91E019
:1010D0000E94B2030E94250383E392E00E948C01E8
:1010E000892B09F462C00E94C00381E090E00E9455
:1010F00087020E94C0036CE571E0CE0101960E9458
:10110000DF03CE0101960E94AC03CE0101960E943E
:10111000D7036AE371E0CE0101960E94DF0365E028
:1011200072E0CE0107960E94DF039E012F5F3F4FC2
:10113000B701A601CE0107960E942804CE010796AA
:101140000E94D703CE0101960E94D7036CE571E09F
:10115000CE0101960E94DF03CE0101960E94AC03EE
:10116000CE0101960E94D7030115110509F4F6CDB1
:101170000E949801882309F4F1CD0E940000EECD71
:1011800060E08091DB020E943B0261E08091DD0221
:101190000E943B026091E1027091E2028091DF02C5
:1011A0000E94A40280EF91E093CF0E94A6006B0101
:1011B0007C0138CF0E941C0908F481E00895E8946E
:1011C00009C097FB3EF490958095709561957F4F8F
:1011D0008F4F9F4F9923A9F0F92F96E9BB2793953D
:1011E000F695879577956795B795F111F8CFFAF44D
:1011F000BB0F11F460FF1BC06F5F7F4F8F4F9F4F7E
:1012000016C0882311F096E911C0772321F09EE8DB
:10121000872F762F05C0662371F096E8862F70E041
:1012200060E02AF09A95660F771F881FDAF7880F1B
:101230009695879597F90895990F0008550FAA0B71
:10124000E0E8FEEF16161706E807F907C0F01216D9
:101250001306E407F50798F0621B730B840B950BDC
:1012600039F40A2661F0232B242B252B21F4089531
:101270000A2609F4A140A6958FEF811D811D0895CE
:101280000E9453090C94C4090E94B60938F00E94C8
:10129000BD0920F0952311F00C94AD090C94B3090D
:1012A00011240C94F8090E94D50970F3959FC1F39D
:1012B000950F50E0551F629FF001729FBB27F00D04
:1012C000B11D639FAA27F00DB11DAA1F649F662759
:1012D000B00DA11D661F829F2227B00DA11D621FA8
:1012E000739FB00DA11D621F839FA00D611D221F62
:1012F000749F3327A00D611D231F849F600D211D46
:10130000822F762F6A2F11249F5750409AF0F1F0C8
:1013100088234AF0EE0FFF1FBB1F661F771F881F31
:1013200091505040A9F79E3F510580F00C94AD09B3
:101330000C94F8095F3FE4F3983ED4F386957795D3
:101340006795B795F795E7959F5FC1F7FE2B880FD7
:10135000911D9695879597F9089597F99F6780E86D
:1013600070E060E008959FEF80EC089500240A94F7
:101370001616170618060906089500240A94121670
:101380001306140605060895092E0394000C11F4A3
:10139000882352F0BB0F40F4BF2B11F460FF04C050
:1013A0006F5F7F4F8F4F9F4F089557FD9058440FA9
:1013B000551F59F05F3F71F04795880F97FB991FB4
:1013C00061F09F3F79F08795089512161306140671
:1013D000551FF2CF4695F1DF08C0161617061806FE
:1013E000991FF1CF86957105610508940895E894D9
:1013F000BB2766277727CB0197F908950E94400AFB
:10140000A59F900DB49F900DA49F800D911D112458
:1014100008952F923F924F925F926F927F928F9298
:101420009F92AF92BF92CF92DF92EF92FF920F9373
:101430001F93CF93DF93CDB7DEB7CA1BDB0B0FB67D
:10144000F894DEBF0FBECDBF09942A88398848883A
:101450005F846E847D848C849B84AA84B984C884D0
:10146000DF80EE80FD800C811B81AA81B981CE0FC7
:10147000D11D0FB6F894DEBF0FBECDBFED010895AC
:10148000A29FB001B39FC001A39F700D811D1124C5
:10149000911DB29F700D811D1124911D089550580A
:1014A000BB27AA270E94670A0C94C4090E94B609A8
:1014B00038F00E94BD0920F039F49F3F19F426F45A
:1014C0000C94B3090EF4E095E7FB0C94AD09E92FF9
:1014D0000E94D50958F3BA17620773078407950766
:1014E00020F079F4A6F50C94F7090EF4E0950B2E94
:1014F000BA2FA02D0B01B90190010C01CA01A00166
:101500001124FF27591B99F0593F50F4503E68F1C0
:101510001A16F040A22F232F342F4427585FF3CF01
:10152000469537952795A795F0405395C9F77EF4D2
:101530001F16BA0B620B730B840BBAF09150A1F01B
:10154000FF0FBB1F661F771F881FC2F70EC0BA0FA1
:10155000621F731F841F48F4879577956795B79529
:10156000F7959E3F08F0B0CF9395880F08F0992724
:10157000EE0F9795879508950E94C30A6894B1115C
:101580000C94F80908950E94DD0988F09F5798F09F
:10159000B92F9927B751B0F0E1F0660F771F881F78
:1015A000991F1AF0BA95C9F714C0B13091F00E9492
:1015B000F709B1E008950C94F709672F782F882771
:1015C000B85F39F0B93FCCF3869577956795B395B9
:1015D000D9F73EF490958095709561957F4F8F4F28
:1015E0009F4F08950E941C0908F48FEF08950E94F0
:1015F0001C09880B990B0895A1E21A2EAA1BBB1B8C
:10160000FD010DC0AA1FBB1FEE1FFF1FA217B307CE
:10161000E407F50720F0A21BB30BE40BF50B661FE4
:10162000771F881F991F1A9469F7609570958095A8
:1016300090959B01AC01BD01CF010895EE0FFF1FF6
:101640000590F491E02D09940F931F93CF93DF93AE
:101650008230910510F482E090E0E091E502F09193
:10166000E60230E020E0B0E0A0E0309799F42115E8
:10167000310509F44AC0281B390B24303105D8F54F
:101680008A819B816115710589F1FB0193838283B6
:10169000FE0111C040815181028113814817590711
:1016A000E0F04817590799F4109761F012960C93DF
:1016B000129713961C933296CF01DF91CF911F9111
:1016C0000F9108950093E5021093E602F4CF2115DF
:1016D000310551F04217530738F0A901DB019A0197
:1016E000BD01DF01F801C1CFEF01F9CF9093E60210
:1016F0008093E502CDCFFE01E20FF31F819391931A
:101700002250310939832883D7CF2091E3023091C9
:10171000E402232B41F42091020130910301309324
:10172000E4022093E3022091000130910101211590
:10173000310541F42DB73EB74091040150910501A8
:10174000241B350BE091E302F091E402E217F3076A
:10175000A0F42E1B3F0B2817390778F0AC014E5F21
:101760005F4F2417350748F04E0F5F1F5093E40278
:101770004093E302819391939FCFF0E0E0E09CCF10
:10178000CF93DF930097E9F0FC0132971382128226
:10179000A091E502B091E602ED0130E020E0109763
:1017A000A1F420813181820F931F2091E3023091B7
:1017B000E4022817390709F061C0F093E402E093CE
:1017C000E302DF91CF910895EA01CE17DF07E8F534
:1017D0004A815B819E0141155105B1F7E901FB8307
:1017E000EA8349915991C40FD51FEC17FD0761F4A5
:1017F000808191810296840F951FE90199838883E6
:10180000828193819B838A83F0E0E0E012968D9140
:101810009C9113970097B9F52D913C911197CD01AB
:101820000296820F931F2091E3023091E402281761
:10183000390739F6309751F51092E6021092E50219
:10184000B093E402A093E302BCCFD383C283408170
:101850005181840F951FC817D90761F44E5F5F4F00
:1018600088819981480F591F518340838A819B81C8
:10187000938382832115310509F0B0CFF093E602FE
:10188000E093E5029ECFFD01DC01C0CF13821282FE
:10189000D7CFB0E0A0E0EFE4FCE00C940B0A8C01A1
:1018A000009751F4CB010E94240B8C01C801CDB7E5
:1018B000DEB7E0E10C94270AFC01E60FF71F9C015C
:1018C00022503109E217F30708F49DC0D901CD91E8
:1018D000DC911197C617D70798F0C530D10530F3C2
:1018E000CE0104978617970708F3C61BD70B2297DC
:1018F000C193D1936D937C93CF010E94C00BD6CF3F
:101900005B01AC1ABD0A4C018C0E9D1EA091E50234
:10191000B091E602512C412CF12CE12C109731F5BD
:101920008091E3029091E4028815990509F05CC06A
:101930004616570608F058C08091000190910101A9
:10194000009741F48DB79EB7409104015091050175
:10195000841B950BE817F90708F055C0F093E402D3
:10196000E093E302F90171836083A0CF8D919C9194
:10197000119712966C90129713967C901397A81556
:10198000B90559F56C0142E0C40ED11CCA14DB0440
:1019900020F1AC014A195B09DA011296159780F023
:1019A0006282738251834083D9016D937C93E114E9
:1019B000F10471F0D7011396FC93EE93129776CF52
:1019C00022968C0F9D1FF90191838083F301EFCF45
:1019D000F093E602E093E50269CF4816590608F451
:1019E0002C017D01D3019ACFCB010E94240B7C01F5
:1019F000009749F0AE01B8010E94060DC8010E948F
:101A0000C00B870153CF10E000E050CFFB01DC0199
:101A100002C001900D9241505040D8F70895FB014B
:101A2000DC0101900D920020E1F70895F894FFCFBA
:101A30000000E702800000000000CE01E5001B016D
:101A40001B028C012A013E010D0A006D6F746F723A
:101A50002073746F7065642E2E00202D20006E613F
:101A60006E00696E66006F7666006B50610074618F
:101A7000726765742070726573757265007379732F
:101A800074656D2070726573757265002D2D2D2D36
:101A90002D2D2D2D2D2D2D2D2D2D2D2D2D2D2D2D76
:101AA0002D2D2D2D2D2D2D2D2D2D2D2D2D2D2D2D66
:101AB0002D2D2D2D2D2D2D2D2D2D2D2D2D2D2D2D56
:101AC0002D2D2D2D0052656E646572696E67207331
:101AD000746172746564202121205B746172676592
:101AE0007420707265737572655D0052656E646511
:101AF00072696E67202121205B63757272656E7456
:101B000020707265737572655D006D6F746F722001
:101B10007370696E696E672072696768742E2E0033
:101B20006D6F746F72207370696E696E67206C657B
:101B300066742E2E005265646572696E6720636F4D
:101B40006D706C6574656420212120617420707251
:061B50006573757265006B
:107E0000112484B714BE81FFF0D085E080938100F7
:107E100082E08093C00088E18093C10086E0809377
:107E2000C20080E18093C4008EE0C9D0259A86E02C
:107E300020E33CEF91E0309385002093840096BBD3
:107E4000B09BFECF1D9AA8958150A9F7CC24DD24C4
:107E500088248394B5E0AB2EA1E19A2EF3E0BF2EE7
:107E6000A2D0813461F49FD0082FAFD0023811F036
:107E7000013811F484E001C083E08DD089C08234E0
:107E800011F484E103C0853419F485E0A6D080C0E4
:107E9000853579F488D0E82EFF2485D0082F10E0AE
:107EA000102F00270E291F29000F111F8ED06801E7
:107EB0006FC0863521F484E090D080E0DECF843638
:107EC00009F040C070D06FD0082F6DD080E0C81688
:107ED00080E7D80618F4F601B7BEE895C0E0D1E017
:107EE00062D089930C17E1F7F0E0CF16F0E7DF06D8
:107EF00018F0F601B7BEE89568D007B600FCFDCFD4
:107F0000A601A0E0B1E02C9130E011968C91119780
:107F100090E0982F8827822B932B1296FA010C0160
:107F200087BEE89511244E5F5F4FF1E0A038BF0790
:107F300051F7F601A7BEE89507B600FCFDCF97BE46
:107F4000E89526C08437B1F42ED02DD0F82E2BD052
:107F50003CD0F601EF2C8F010F5F1F4F84911BD097
:107F6000EA94F801C1F70894C11CD11CFA94CF0C13
:107F7000D11C0EC0853739F428D08EE10CD085E9AC
:107F80000AD08FE07ACF813511F488E018D01DD067
:107F900080E101D065CF982F8091C00085FFFCCF94
:107FA0009093C60008958091C00087FFFCCF809118
:107FB000C00084FD01C0A8958091C6000895E0E648
:107FC000F0E098E1908380830895EDDF803219F02E
:107FD00088E0F5DFFFCF84E1DECF1F93182FE3DFCA
:107FE0001150E9F7F2DF1F91089580E0E8DFEE27F6
:047FF000FF270994CA
:027FFE00040479
:0400000300007E007B
:00000001FF
