:100000000C945D000C9485000C9485000C94850084
:100010000C9485000C9485000C9485000C9485004C
:100020000C9485000C9485000C9485000C9485003C
:100030000C9485000C9485000C9485000C9485002C
:100040000C94B5030C9485000C9425040C94FF03C8
:100050000C9485000C9485000C9485000C9485000C
:100060000C9485000C94850000000008000201003B
:100070000003040700000000000000000000000072
:10008000250028002B0000000000240027002A0083
:10009000040404040404040402020202020203032E
:1000A0000303030301020408102040800102040836
:1000B0001020010204081020930611241FBECFEF68
:1000C000D8E0DEBFCDBF22E0A8E9B1E001C01D92BB
:1000D000AA34B207E1F711E0A0E0B1E0ECEAF6E102
:1000E00002C005900D92A839B107D9F710E0CDE50F
:1000F000D0E004C02197FE010E945C09CC35D107F5
:10010000C9F70E9457040C94540B0C94000090E023
:10011000FC01EC55FF4F249180579F4FFC018491C7
:10012000882399F090E0880F991FFC01EA57FF4F50
:10013000A591B491FC01E458FF4F859194918FB73C
:10014000F894EC91E22BEC938FBF0895AF92BF929D
:10015000CF92DF92EF92FF920F931F93CF93DF9393
:100160006C017B018B01040F151FEB015E01AE18C2
:10017000BF08C017D10759F06991D601ED91FC91E4
:100180000190F081E02DC6010995892B79F7C50111
:10019000DF91CF911F910F91FF90EF90DF90CF9063
:1001A000BF90AF900895FC01538D448D252F30E012
:1001B000842F90E0821B930B541710F0CF96089574
:1001C00001970895FC01918D828D981761F0A28DA1
:1001D000AE0FBF2FB11D5D968C91928D9F5F9F7367
:1001E000928F90E008958FEF9FEF0895FC01918D1D
:1001F000828D981731F0828DE80FF11D858D90E08A
:1002000008958FEF9FEF0895FC01918D228D892F26
:1002100090E0805C9F4F821B91098F73992708950E
:1002200089EA91E00E94040121E0892B09F420E091
:10023000822F089580E090E0892B29F00E94100120
:1002400081110C9400000895FC01A48DA80FB92F12
:10025000B11DA35ABF4F2C91848D90E001968F73EE
:100260009927848FA689B7892C93A089B1898C910D
:10027000837080648C93938D848D981306C002885C
:10028000F389E02D80818F7D80830895EF92FF9226
:100290000F931F93CF93DF93EC0181E0888F9B8DA9
:1002A0008C8D98131AC0E889F989808185FF15C063
:1002B0009FB7F894EE89FF896083E889F989808186
:1002C0008370806480839FBF81E090E0DF91CF9155
:1002D0001F910F91FF90EF900895F62E0B8D10E077
:1002E0000F5F1F4F0F731127E02E8C8D8E110CC0E6
:1002F0000FB607FCFACFE889F989808185FFF5CF31
:10030000CE010E942401F1CFEB8DEC0FFD2FF11DEA
:10031000E35AFF4FF0829FB7F8940B8FEA89FB896D
:1003200080818062CFCFCF93DF93EC01888D8823CB
:10033000B9F0AA89BB89E889F9898C9185FD03C048
:10034000808186FD0DC00FB607FCF7CF8C9185FF2D
:10035000F2CF808185FFEDCFCE010E942401E9CF4D
:10036000DF91CF91089590E0FC01E859FF4F24916F
:10037000FC01EC55FF4F3491FC01E057FF4FE49135
:10038000EE23C9F0222339F0233001F1A8F4213003
:1003900019F1223029F1F0E0EE0FFF1FE458FF4F72
:1003A000A591B4918FB7F894EC91611126C0309566
:1003B0003E233C938FBF08952730A9F02830C9F021
:1003C000243049F7809180008F7D03C080918000A8
:1003D0008F7780938000DFCF84B58F7784BDDBCFAC
:1003E00084B58F7DFBCF8091B0008F778093B00074
:1003F000D2CF8091B0008F7DF9CF3E2BDACF81E450
:1004000080937C0080917A00806480937A00809150
:100410007A0086FDFCCF8091780060917900762F7C
:10042000682F072E000C880B990B0E94C70620E04E
:1004300030E040EA50E40E94260720E030E040E847
:100440005AE30E94260727EC3BE447EF5EE30E9455
:100450001B0820E030E048EC53E40E9426070E948D
:10046000FA08072E000C880B990B0E94C706089506
:10047000FC0101900020E9F73197AF01481B590BAF
:10048000BC0189EA91E00C94A6008F929F92AF92F2
:10049000BF920F931F93CF93DF93CDB7DEB7A19792
:1004A0000FB6F894DEBF0FBECDBF19A2423008F4DC
:1004B0004AE08E010F5D1F4F842E912CB12CA12C90
:1004C000A50194010E943A09E62FB901CA01EA3058
:1004D000F4F4E05DD801EE938D01232B242B252B22
:1004E00079F790E080E0109719F0CD010E94380272
:1004F000A1960FB6F894DEBF0FBECDBFDF91CF91AE
:100500001F910F91BF90AF909F908F900895E95CDD
:10051000E1CFFC0180819181009711F00C94FE09DC
:100520000895EF92FF920F931F93CF93DF93EC0107
:100530007B01198218821B821A821D821C82FB0198
:1005400001900020E9F731978F01061B170BB801C6
:100550006F5F7F4F90E080E00E94870A0097B9F0BC
:10056000998388831B830A832C813D81232B11F47B
:10057000FC0110821D830C83B70188819981DF9172
:10058000CF911F910F91FF90EF900C944D0B8881AC
:100590009981009711F00E94FE09198218821D822C
:1005A0001C821B821A82DF91CF911F910F91FF90C5
:1005B000EF9008958F929F92AF92BF92CF92DF9269
:1005C000EF92FF92CF93DF935C016A017B01E90117
:1005D0008AE191E00E94380288E191E00E943802AD
:1005E000F501448155816081718189EA91E00E9421
:1005F000A6008BE191E00E943802A7019601C70195
:10060000B6010E9435098823F1F08FE191E00E9444
:1006100038024C815D816881798189EA91E00E948C
:10062000A6008AE191E00E94380288E191E0DF9122
:10063000CF91FF90EF90DF90CF90BF90AF909F90C1
:100640008F900C94380246015701E894B7F82FEFC9
:100650003FEF4FE75FE7C501B4010E943509811103
:100660000DC02FEF3FEF4FE75FE7C501B4010E94D8
:10067000C00618161CF483E291E0C9CF2FEF3FEFBC
:100680004FE75FE4C701B6010E94300918161CF459
:1006900087E291E0BCCF2FEF3FEF4FE75FECC70160
:1006A000B6010E94C00687FDF3CF20E030E0A9012B
:1006B000C701B6010E94C00687FF09C06DE289EA42
:1006C00091E00E944601F7FAF094F7F8F0942AE0DE
:1006D00037ED43EA5BE3C701B6010E941C084B01FA
:1006E0005C010E9401096B017C010E94C5069B010F
:1006F000AC01C501B4010E941B084B015C014AE03A
:10070000C701B6010E9445026EE289EA91E00E94AB
:10071000460120E030E040E251E4C501B4010E940E
:1007200026074B015C010E9401096B01F12CE12CB1
:100730004AE0C701B6010E944502C701B6010E9406
:10074000C5069B01AC01C501B4010E941B0820E055
:1007500030E040E251E40E9426070E94010990E047
:1007600080E04AE00E94450254CF1F920F920FB6DC
:100770000F9211242F933F938F939F93AF93BF9327
:100780008091A5019091A601A091A701B091A80127
:100790003091A40123E0230F2D3758F50196A11DB8
:1007A000B11D2093A4018093A5019093A601A0936D
:1007B000A701B093A8018091A0019091A101A091FF
:1007C000A201B091A3010196A11DB11D8093A001CA
:1007D0009093A101A093A201B093A301BF91AF9107
:1007E0009F918F913F912F910F900FBE0F901F906F
:1007F000189526E8230F0296A11DB11DD2CF1F9296
:100800000F920FB60F9211242F933F934F935F9344
:100810006F937F938F939F93AF93BF93EF93FF93C8
:1008200089EA91E00E942401FF91EF91BF91AF917D
:100830009F918F917F916F915F914F913F912F91F8
:100840000F900FBE0F901F9018951F920F920FB62A
:100850000F9211242F938F939F93EF93FF93E09127
:10086000B901F091BA018081E091BF01F091C0011E
:1008700082FD1BC090818091C2018F5F8F73209198
:10088000C301821741F0E091C201F0E0E755FE4F4D
:10089000958F8093C201FF91EF919F918F912F913E
:1008A0000F900FBE0F901F9018958081F4CFCF93BB
:1008B000DF93CDB7DEB72C970FB6F894DEBF0FBE2F
:1008C000CDBF789484B5826084BD84B5816084BDD9
:1008D00085B5826085BD85B5816085BD80916E00DE
:1008E000816080936E00109281008091810082600F
:1008F000809381008091810081608093810080914C
:1009000080008160809380008091B100846080933A
:10091000B1008091B00081608093B00080917A0036
:10092000846080937A0080917A00826080937A005C
:1009300080917A00816080937A0080917A0080684B
:1009400080937A001092C100E091B901F091BA0150
:1009500082E08083E091B501F091B6011082E091D0
:10096000B701F091B8018FEC80831092C101E09142
:10097000BD01F091BE0186E08083E091BB01F09162
:10098000BC01808180618083E091BB01F091BC015A
:10099000808188608083E091BB01F091BC018081FF
:1009A00080688083E091BB01F091BC0180818F7DE4
:1009B000808388E00E94870087E00E94870084E0AF
:1009C0000E9487008AE00E94870061E084E00E9424
:1009D000B3018AE00E948700E2E7F0E0E491E330AF
:1009E00009F446C150F4E130E1F0E23009F43AC1D3
:1009F00061E08AE00E94B30119C0E73009F444C104
:100A0000E83009F44AC1E43099F7809180008062AF
:100A1000809380008AEF90E090938B0080938A000F
:100A200005C084B5806884BD8AEF87BD00E010E012
:100A30000E94FF016B017C01C0929C01D0929D013C
:100A4000E0929E01F0929F016BE271E0CE0101966F
:100A50000E9491026EE271E0CE0107960E9491021F
:100A60009E012F5F3F4FB701A601CE0107960E945E
:100A7000DA02CE0107960E948902CE0101960E94F9
:100A800089020E94FF014B015C01C0909C01D09043
:100A90009D01E0909E01F0909F0127EC3BE447EF21
:100AA0005EE3C701B6010E941C089B01AC01C501B1
:100AB000B4010E94300918160CF0F8C06BE271E026
:100AC000CE0101960E9491020E94FF01A7019601AA
:100AD0000E941B086B017C016EE371E0CE0107965A
:100AE0000E9491029E012F5F3F4FB701A601CE01E8
:100AF00007960E94DA02CE0107960E948902CE0173
:100B000001960E9489020E94FF014B015C01209125
:100B10009C0130919D0140919E0150919F010E9446
:100B20001B0827E137EB41ED59E30E9426076B01D3
:100B30007C0120E030E040E451E40E9430091816C6
:100B400034F4C12CD12C80E4E82E81E4F82EA701E6
:100B50009601C501B4010E941C086B017C01C09282
:100B60009801D0929901E0929A01F0929B016BE278
:100B700071E0CE0101960E94910263E571E0CE0121
:100B800007960E9491029E012F5F3F4FB701A60179
:100B9000CE0107960E94DA02CE0107960E948902D2
:100BA000CE0101960E94890261E088E00E94B301B3
:100BB00060E087E00E94B30160E084E00E94B3013E
:100BC0000E94FF01C0909801D0909901E0909A0195
:100BD000F0909B01A70196010E94C006811166C09A
:100BE00062E671E0CE0101960E9491020E94FF012F
:100BF0009B01AC01C701B6010E941B0820E030E058
:100C000048EC52E40E9426074B015C0120919C01B4
:100C100030919D0140919E0150919F01C701B60105
:100C20000E941B089B01AC01C501B4010E94880809
:100C30006B017C016DE671E0CE0107960E94910286
:100C40009E012F5F3F4FB701A601CE0107960E947C
:100C5000DA02CE0107960E948902CE0101960E9417
:100C60008902AECF84B5806284BD8AEF88BDDECEB6
:100C7000809180008068809380008AEF90E090935C
:100C8000890080938800D2CE8091B00080688093E4
:100C9000B0008AEF8093B300C9CE8091B00080622B
:100CA0008093B0008AEF8093B400C0CE6BE271E015
:100CB000CE0101960E949102C0909801D0909901B6
:100CC000E0909A01F0909B016FE771E0CE010796EA
:100CD0000E9491029E012F5F3F4FB701A601CE01F6
:100CE00007960E94DA02CE0107960E948902CE0181
:100CF00001960E94890261E084E00E94B30160E0F5
:100D000088E00E94B30160E087E00E94B301011512
:100D1000110509F48DCE0E941001882309F488CEB4
:100D20000E94000085CEE9EAF1E01382128288EE8B
:100D300093E0A0E0B0E084839583A683B7838AE044
:100D400091E09183808385EC90E09587848784ECA3
:100D500090E09787868780EC90E0918B808B81EC88
:100D600090E0938B828B82EC90E0958B848B86EC69
:100D700090E0978B868B118E128E138E148E0895B1
:100D80000E94020708F481E00895E89409C097FBE7
:100D90003EF490958095709561957F4F8F4F9F4F52
:100DA0009923A9F0F92F96E9BB279395F695879596
:100DB00077956795B795F111F8CFFAF4BB0F11F459
:100DC00060FF1BC06F5F7F4F8F4F9F4F16C0882300
:100DD00011F096E911C0772321F09EE8872F762F36
:100DE00005C0662371F096E8862F70E060E02AF077
:100DF0009A95660F771F881FDAF7880F9695879563
:100E000097F90895990F0008550FAA0BE0E8FEEF37
:100E100016161706E807F907C0F012161306E407BE
:100E2000F50798F0621B730B840B950B39F40A26B7
:100E300061F0232B242B252B21F408950A2609F495
:100E4000A140A6958FEF811D811D08950E9439074D
:100E50000C94AA070E949C0738F00E94A30720F078
:100E6000952311F00C9493070C94990711240C947A
:100E7000DE070E94BB0770F3959FC1F3950F50E00A
:100E8000551F629FF001729FBB27F00DB11D639F3C
:100E9000AA27F00DB11DAA1F649F6627B00DA11DE2
:100EA000661F829F2227B00DA11D621F739FB00D88
:100EB000A11D621F839FA00D611D221F749F3327F8
:100EC000A00D611D231F849F600D211D822F762F91
:100ED0006A2F11249F5750409AF0F1F088234AF06E
:100EE000EE0FFF1FBB1F661F771F881F91505040DA
:100EF000A9F79E3F510580F00C9493070C94DE07F0
:100F00005F3FE4F3983ED4F3869577956795B79560
:100F1000F795E7959F5FC1F7FE2B880F911D96957A
:100F2000879597F9089597F99F6780E870E060E0EA
:100F300008959FEF80EC089500240A941616170672
:100F400018060906089500240A94121613061406BA
:100F500005060895092E0394000C11F4882352F01D
:100F6000BB0F40F4BF2B11F460FF04C06F5F7F4FD5
:100F70008F4F9F4F089557FD9058440F551F59F0BC
:100F80005F3F71F04795880F97FB991F61F09F3F76
:100F900079F087950895121613061406551FF2CF9F
:100FA0004695F1DF08C0161617061806991FF1CFEF
:100FB00086957105610508940895E894BB27662716
:100FC0007727CB0197F908952F923F924F925F9226
:100FD0006F927F928F929F92AF92BF92CF92DF9249
:100FE000EF92FF920F931F93CF93DF93CDB7DEB7AE
:100FF000CA1BDB0B0FB6F894DEBF0FBECDBF099442
:101000002A88398848885F846E847D848C849B8498
:10101000AA84B984C884DF80EE80FD800C811B81A6
:10102000AA81B981CE0FD11D0FB6F894DEBF0FBED5
:10103000CDBFED0108955058BB27AA270E94330861
:101040000C94AA070E949C0738F00E94A30720F086
:1010500039F49F3F19F426F40C9499070EF4E095A7
:10106000E7FB0C949307E92F0E94BB0758F3BA17CC
:10107000620773078407950720F079F4A6F50C94AE
:10108000DD070EF4E0950B2EBA2FA02D0B01B90150
:1010900090010C01CA01A0011124FF27591B99F0EE
:1010A000593F50F4503E68F11A16F040A22F232FFA
:1010B000342F4427585FF3CF469537952795A7954A
:1010C000F0405395C9F77EF41F16BA0B620B730BF1
:1010D000840BBAF09150A1F0FF0FBB1F661F771F62
:1010E000881FC2F70EC0BA0F621F731F841F48F417
:1010F000879577956795B795F7959E3F08F0B0CFA0
:101100009395880F08F09927EE0F97958795089586
:101110000E949C080C94AA070E94A30758F00E9402
:101120009C0740F029F45F3F29F00C94930751117C
:101130000C94DE070C9499070E94BB0768F399236F
:10114000B1F3552391F3951B550BBB27AA276217C3
:101150007307840738F09F5F5F4F220F331F441FD0
:10116000AA1FA9F335D00E2E3AF0E0E832D0915004
:101170005040E695001CCAF72BD0FE2F29D0660FF1
:10118000771F881FBB1F261737074807AB07B0E834
:1011900009F0BB0B802DBF01FF2793585F4F3AF03A
:1011A0009E3F510578F00C9493070C94DE075F3F47
:1011B000E4F3983ED4F3869577956795B795F795C0
:1011C0009F5FC9F7880F911D9695879597F90895A8
:1011D000E1E0660F771F881FBB1F62177307840744
:1011E000BA0720F0621B730B840BBA0BEE1F88F753
:1011F000E09508950E9401096894B1110C94DE07EE
:1012000008950E94C30788F09F5798F0B92F992737
:10121000B751B0F0E1F0660F771F881F991F1AF0E1
:10122000BA95C9F714C0B13091F00E94DD07B1E062
:1012300008950C94DD07672F782F8827B85F39F061
:10124000B93FCCF3869577956795B395D9F73EF47A
:1012500090958095709561957F4F8F4F9F4F089522
:101260000E94020708F48FEF08950E940207880B7E
:10127000990B0895A1E21A2EAA1BBB1BFD010DC0FC
:10128000AA1FBB1FEE1FFF1FA217B307E407F50736
:1012900020F0A21BB30BE40BF50B661F771F881F12
:1012A000991F1A9469F760957095809590959B01A8
:1012B000AC01BD01CF010895EE0FFF1F0590F49121
:1012C000E02D09940F931F93CF93DF938230910504
:1012D00010F482E090E0E0914802F091490230E0A1
:1012E00020E0B0E0A0E0309799F42115310509F431
:1012F0004AC0281B390B24303105D8F58A819B81DF
:101300006115710589F1FB0193838283FE0111C090
:10131000408151810281138148175907E0F0481735
:10132000590799F4109761F012960C93129713963F
:101330001C933296CF01DF91CF911F910F910895A9
:101340000093480210934902F4CF2115310551F062
:101350004217530738F0A901DB019A01BD01DF01F3
:10136000F801C1CFEF01F9CF909349028093480271
:10137000CDCFFE01E20FF31F8193919322503109EB
:1013800039832883D7CF2091460230914702232BFF
:1013900041F42091020130910301309347022093E0
:1013A000460220910001309101012115310541F4DF
:1013B0002DB73EB74091040150910501241B350B18
:1013C000E0914602F0914702E217F307A0F42E1BCA
:1013D0003F0B2817390778F0AC014E5F5F4F241799
:1013E000350748F04E0F5F1F509347024093460267
:1013F000819391939FCFF0E0E0E09CCFCF93DF9378
:101400000097E9F0FC01329713821282A091480202
:10141000B0914902ED0130E020E01097A1F4208165
:101420003181820F931F2091460230914702281785
:10143000390709F061C0F0934702E0934602DF915B
:10144000CF910895EA01CE17DF07E8F54A815B8165
:101450009E0141155105B1F7E901FB83EA834991EA
:101460005991C40FD51FEC17FD0761F4808191815C
:101470000296840F951FE901998388838281938165
:101480009B838A83F0E0E0E012968D919C91139704
:101490000097B9F52D913C911197CD010296820FDD
:1014A000931F20914602309147022817390739F6D9
:1014B000309751F51092490210924802B0934702BA
:1014C000A0934602BCCFD383C28340815181840F55
:1014D000951FC817D90761F44E5F5F4F88819981C6
:1014E000480F591F518340838A819B819383828354
:1014F0002115310509F0B0CFF0934902E09348027D
:101500009ECFFD01DC01C0CF13821282D7CFB0E0A5
:10151000A0E0EDE8FAE00C94E6078C01009751F4A6
:10152000CB010E9462098C01C801CDB7DEB7E0E1B2
:101530000C940208FC01E60FF71F9C0122503109B0
:10154000E217F30708F49DC0D901CD91DC91119702
:10155000C617D70798F0C530D10530F3CE010497F0
:101560008617970708F3C61BD70B2297C193D19311
:101570006D937C93CF010E94FE09D6CF5B01AC1A1C
:10158000BD0A4C018C0E9D1EA0914802B0914902EB
:10159000512C412CF12CE12C109731F58091460211
:1015A000909147028815990509F05CC046165706C8
:1015B00008F058C08091000190910101009741F41A
:1015C0008DB79EB74091040150910501841B950B86
:1015D000E817F90708F055C0F0934702E093460278
:1015E000F90171836083A0CF8D919C911197129620
:1015F0006C90129713967C901397A815B90559F51E
:101600006C0142E0C40ED11CCA14DB0420F1AC0111
:101610004A195B09DA011296159780F0628273828B
:1016200051834083D9016D937C93E114F10471F0EF
:10163000D7011396FC93EE93129776CF22968C0FD8
:101640009D1FF90191838083F301EFCFF09349024D
:10165000E093480269CF4816590608F42C017D0131
:10166000D3019ACFCB010E9462097C01009749F017
:10167000AE01B8010E94440BC8010E94FE09870117
:1016800053CF10E000E050CFFB01DC0102C001901D
:101690000D9241505040D8F70895FB01DC010190B4
:0C16A0000D920020E1F70895F894FFCFB0
:1016AC0000004A028000000000004601A600D300A2
:1016BC0093010401E200F6000D0A00202D20006EBB
:1016CC00616E00696E66006F76660050610063752E
:1016DC007272656E7420507265737572650050720B
:1016EC006573757265206368616E6765202864692F
:1016FC006629005461726765742050726573757247
:10170C00650020436F6D706C657465640041646A9C
:10171C00757374696E6720507265737572650054C9
:10172C0061726765742050726573757265206172A1
:08173C00636869766564000032
:107E0000112484B714BE81FFF0D085E080938100F7
:107E100082E08093C00088E18093C10086E0809377
:107E2000C20080E18093C4008EE0C9D0259A86E02C
:107E300020E33CEF91E0309385002093840096BBD3
:107E4000B09BFECF1D9AA8958150A9F7CC24DD24C4
:107E500088248394B5E0AB2EA1E19A2EF3E0BF2EE7
:107E6000A2D0813461F49FD0082FAFD0023811F036
:107E7000013811F484E001C083E08DD089C08234E0
:107E800011F484E103C0853419F485E0A6D080C0E4
:107E9000853579F488D0E82EFF2485D0082F10E0AE
:107EA000102F00270E291F29000F111F8ED06801E7
:107EB0006FC0863521F484E090D080E0DECF843638
:107EC00009F040C070D06FD0082F6DD080E0C81688
:107ED00080E7D80618F4F601B7BEE895C0E0D1E017
:107EE00062D089930C17E1F7F0E0CF16F0E7DF06D8
:107EF00018F0F601B7BEE89568D007B600FCFDCFD4
:107F0000A601A0E0B1E02C9130E011968C91119780
:107F100090E0982F8827822B932B1296FA010C0160
:107F200087BEE89511244E5F5F4FF1E0A038BF0790
:107F300051F7F601A7BEE89507B600FCFDCF97BE46
:107F4000E89526C08437B1F42ED02DD0F82E2BD052
:107F50003CD0F601EF2C8F010F5F1F4F84911BD097
:107F6000EA94F801C1F70894C11CD11CFA94CF0C13
:107F7000D11C0EC0853739F428D08EE10CD085E9AC
:107F80000AD08FE07ACF813511F488E018D01DD067
:107F900080E101D065CF982F8091C00085FFFCCF94
:107FA0009093C60008958091C00087FFFCCF809118
:107FB000C00084FD01C0A8958091C6000895E0E648
:107FC000F0E098E1908380830895EDDF803219F02E
:107FD00088E0F5DFFFCF84E1DECF1F93182FE3DFCA
:107FE0001150E9F7F2DF1F91089580E0E8DFEE27F6
:047FF000FF270994CA
:027FFE00040479
:0400000300007E007B
:00000001FF
